:020000040800F2
:10000000280D0024ED03000841790008596B000811
:1000100039790008F1180008A197000800000000D5
:10002000000000000000000000000000617D0008EA
:10003000F918000800000000B9790008C17D000827
:100040000704000807040008070400080704000864
:100050000704000807040008070400080704000854
:100060000704000807040008070400080704000844
:100070000704000807040008070400080704000834
:100080000704000807040008070400080704000824
:100090000704000807040008070400080704000814
:1000A0000704000807040008070400080704000804
:1000B00007040008070400080704000807040008F4
:1000C00007040008070400080704000807040008E4
:1000D00007040008070400080704000807040008D4
:1000E00007040008070400080000000007040008D7
:1000F00007040008070400080704000807040008B4
:10010000070400080704000811800008070400081D
:100110000704000807040008070400080704000893
:100120000704000807040008070400080704000883
:100130000704000807040008070400080704000873
:1001400000000000000000000000000000000000AF
:100150000704000807040008070400080704000853
:100160000704000807040008070400080704000843
:100170000704000807040008070400080704000833
:100180000704000807040008070400080704000823
:100190000704000807040008070400080704000813
:1001A0000704000807040008070400080704000803
:1001B00007040008070400080704000807040008F3
:1001C00007040008070400080704000807040008E3
:1001D00007040008070400080704000807040008D3
:1001E00007040008070400080704000807040008C3
:1001F00007040008070400080704000807040008B3
:1002000007040008070400080704000807040008A2
:100210000704000807040008070400080704000892
:100220000704000807040008070400080000000095
:100230000704000807040008000000000704000885
:100240000704000807040008070400080704000862
:100250000704000807040008070400080704000852
:100260000704000807040008070400080704000842
:100270000704000807040008070400080000000045
:100280000704000807040008070400080000000035
:10029000000000000704000800F002F800F096F8E3
:1002A0000AA090E8000C82448344AAF10107DA45D1
:1002B00001D100F08BF8AFF2090EBAE80F0013F08D
:1002C000010F18BFFB1A43F001031847E8B60000FE
:1002D00008B70000103A24BF78C878C1FAD852078E
:1002E00024BF30C830C144BF04680C6070470000B0
:1002F0000023002400250026103A28BF78C1FBD82F
:10030000520728BF30C148BF0B6070476E2900F00C
:10031000B582702900F0F98366290BF09082652977
:100320000BF08D8267290BF08A8261290BF089829C
:1003300003681B0A28BF41F08001692900F062822E
:10034000642900F05F82752900F05C826F2900F05B
:100350008783782900F0C583E92900F02183E42907
:1003600000F01E83F52900F01B83EF2900F0848341
:10037000F82900F0C4830368DB0928BF41F080013D
:10038000632901F0E380732901F0E880E32901F09B
:10039000F380F32901F0F880002070471FB50BF0BF
:1003A00041FA9DE8030000F095F901F04BF90400D3
:1003B000002000210BF020FA401C6060002000218A
:1003C0000BF004FAE0601FBD10B510BD01F00CF990
:1003D0001146FFF7E3FF09F03FFE01F0E9F903B42E
:1003E000FFF7F2FF03BC01F019FA0000094880474B
:1003F00009480047FEE7FEE7FEE7FEE7FEE7FEE707
:10040000FEE7FEE7FEE7FEE704480549054A064B1E
:1004100070470000B17E00089902000828070024F8
:10042000280D0024280900242809002470B5064658
:1004300000F034F9056806F10B0020F00704B4421F
:100440009CBF002070BD2B466A68BAB11068A042FC
:1004500010D304F1080188423CBF5068586007D3AC
:100460005168101941601168091B016058601460DF
:10047000101D70BD13465268002AE7D12146284658
:1004800000F014F90028DED170BD70B50446051FD8
:1004900000F004F90068002C14BF446870BD002C03
:1004A00018BFAC423CBF20466468F8D301680A1804
:1004B000AA4218BF456003D12A680546114401606D
:1004C00028684119A1421CBF6C6070BD61686960F9
:1004D00021680844286070BD53EA020C00F069806E
:1004E0002DE9F04B4FF00006002B1FBFB3FA83F548
:1004F00003FA05F424FA05F65E4012BF1643B2FA79
:1005000082F502FA05F4C5F120051EBF22FA05FCAA
:1005100044EA0C04203556EA044C4FEA144418BF50
:10052000641C4FF000084FF00009904271EB030C7F
:1005300039D3002919BFB1FA81F701FA07F6B0FAE9
:1005400080F700FA07F6C7F120071EBF20FA07FC64
:1005500046EA0C062037B6FBF4FCA7EB0507103F74
:1005600007F01F0BCBF120062CFA06F60CFA0BFB5A
:1005700044BFB3460026202FA4BF5E464FF0000BB9
:100580005BEA060C08BF4FF0010B19EB0B0948EBB7
:100590000608ABFB027C06FB02CC0BFB03CCC01BAA
:1005A00071EB0C01C1E70B46024641464846BDE8E7
:1005B000F08B13B5084318BF4FF0FF300146AFF37F
:1005C0000080BDE81C4070477CB51D4616460C00F7
:1005D000009007D04142A14202D32044401E01E0D6
:1005E0004FF0FF30064B7B442A4669460190304667
:1005F00000F05DF9002C02D0009A002111707CBD42
:10060000EB0200004FF000020429C0F0128010F04D
:10061000030C00F01B80CCF1040CBCF1020F18BFDE
:1006200000F8012BA8BF20F8022BA1EB0C0100F071
:100630000DB85FEAC17C24BF00F8012B00F8012B44
:1006400048BF00F8012B70474FF0000200B5134679
:1006500094469646203922BFA0E80C50A0E80C50E2
:10066000B1F12001BFF4F7AF090728BFA0E80C5093
:1006700048BF0CC05DF804EB890028BF40F8042B8C
:1006800008BF704748BF20F8022B11F0804F18BFF9
:1006900000F8012B7047704770477047004870475B
:1006A00018000024704770477047704738B50446FB
:1006B0000A4600206946AFF30080002808BF38BD15
:1006C00002460099204600F0F3FA012038BD0120CF
:1006D00000F082BFF8B5AFF30080054600200C465D
:1006E000102000BF0646A819A0420DD9324669461F
:1006F0000020AFF30080070008BF00F06DFF0098F6
:10070000A04218BF0546C419FFF7C8FF0560074699
:10071000F01D20F007004619284600F00AF8B44200
:1007200008BFF8BDA21B31463868BDE8F84000F0AC
:10073000BFBA00210160C0E9011070471020704766
:1007400070B5044685690068C10601D5302600E011
:100750002026C00707D070BDD4E90121304690475C
:10076000206A401C20626D1EF6D570BD70B504462F
:1007700085690078C00707D170BDD4E90121202028
:100780009047206A401C20626D1EF6D570BD096836
:100790004A0501D540B27047C905FCD500B2704783
:1007A00009684A0501D5C0B27047C905FCD580B2B9
:1007B000704770B50C460546012A05D0287880069A
:1007C00000D5EA69002302E0012305E05B1C9342A7
:1007D00002D2E05C0028F9D1A869E618C01AA86125
:1007E000286A184428622846FFF7AAFF04E0D5E9E2
:1007F000012114F8010B9047B442F8D32846FFF7C3
:10080000B5FF70BD2DE9F04106460024106875293A
:10081000314616A510D0FFF7BAFF002802DA404291
:1008200013A507E031688A0701D512A502E0490740
:1008300004D511A5012401E0FFF7B2FF00210A222F
:1008400006F1240709E0B0FBF2FCB0FBF2F302FB77
:100850001C00303078541846491C0028F3D1234638
:100860002A463046BDE8F04100F081BA00000000A1
:100870002D0000002B00000020000000116802681D
:10088000006A530501D508700AE0D30501D5088038
:1008900006E0130603D5C217C1E9000200E00860B4
:1008A0000120704701694A1C02610878704700B551
:1008B0008FB0CDE901310021059105497944CDE999
:1008C00003101146684600F02BF90FB000BD000080
:1008D000E5FFFFFFD1E900239A4202D2531C0B60CF
:1008E000107070472DE9FF5F15468A460446DFF811
:1008F000AC80F8440027D8E900103E46CDE900104E
:1009000010E03AF816106A4602A800F041FE411CB9
:1009100007D02178890603D5E269391891420DD8AC
:100920000744761C2078800602D5E069B84205DDD0
:10093000AE42E6DB3AF816000028E2D1A069C01BFF
:10094000A0612046FFF7FCFED8E90010CDE90010B9
:10095000002017E03AF818106A4602A800F018FEC6
:10096000B0F1FF3F81460BD000250DF1080B05E0EB
:10097000D4E901211BF8050090476D1C4D45F7D3C4
:1009800008F10100B0428046E4DB206A384420626E
:100990002046FFF7EBFEBDE8FF9F000052AF0000CE
:1009A0002DE9F0418046D21D22F007020025D2E950
:1009B0000002F52915A614D0011E72F1000106DA15
:1009C0000023D0EB030063EB020211A608E0D8F885
:1009D00000108B0701D50FA602E0490701D50EA62E
:1009E00001251146002408F1240704E000F07AF9FB
:1009F00030323A55641C50EA0102F7D12B46324698
:100A000021464046BDE8F04100F0B1B900000000C9
:100A10002D0000002B0000002000000030B4002159
:100A200000F1240408E002F00705D208303542EA5C
:100A30004372DB086554491C52EA0305F3D104688C
:100A4000002310A2250708D504F020040C4304D08D
:100A5000C46901230CA2641EC46130BC00F087B9D4
:100A600010B5044621461068FFF79AFE024620465C
:100A7000BDE810400023D1E7D21D22F00701D1E9E3
:100A80000023CBE70000000030000000F0B40D466A
:100A90000188090502D5214C7C4402E01F4C7C44AE
:100AA0000E34002100F1240608E002F00F071209BD
:100AB000E75D42EA03721B097754491C52EA0307B7
:100AC000F3D102780023120704D5702D06D009B1A6
:100AD000022311342246F0BC00F049B9012310343E
:100AE000F8E770B504460D4621461068FFF758FE3A
:100AF000024629462046BDE870400023C6E7D21DC5
:100B000022F00703D3E90023C0E70368126843F02B
:100B1000200303600823C3610023B7E7B4AD0000DE
:100B20002DE9F05F894604464FF0000ADFF874B102
:100B3000FB44C0F820A02046E1688847002874D014
:100B4000252806D0D4E901219047206A401C206264
:100B5000F1E700265F462046E168884720280546E1
:100B600007DB312D05D2781910F8200C08B10643A7
:100B7000F1E7B00701D526F00406C4F81CA0002751
:100B8000C4F818A02A2D09D028460AF017FE38B359
:100B900004EB8708303DC8F8185019E059F8041BD9
:100BA000204604EB87029161E1688847012F0546E2
:100BB00018D1E069002820DA26F020061DE0D8F8D8
:100BC000180000EB800005EB40003038C8F8180032
:100BD0002046E168884705460AF0F0FD0028EED17E
:100BE000012F0AD02E2D08D12046E16888477F1CAE
:100BF0000546022F46F02006C4DBA069002803DA70
:100C0000404246F00106A061F00701D026F0100630
:100C10006C2D0BD0682D09D04C2D39D06A2D35D0D4
:100C2000742D35D07A2D33D016E038E0E1682F46A8
:100C300020468847B842054609D16C2F26D04FF48C
:100C40008060E168064320468847054604E06C2F33
:100C50001AD04FF4807006430DB3A5F14100192856
:100C600002D8203546F400664A46294620462660CA
:100C70004E46FFF74BFB80B101280BD0F61D26F046
:100C8000070000F1080956E74020E4E78020D8E794
:100C90000020D6E706F104094DE7284652E7206A0E
:100CA000BDE8F09F44AD00000048704710000024EC
:100CB000034640688C46002818BF88423CBF034664
:100CC0004068F8D318681844884207D00CF1030034
:100CD00020F00700001D411A521A0146081D0A6043
:100CE000FFF7D3BB30B5B0F10A0271F100034FEA50
:100CF000900E4EEA817EB0EB0E0061EB91014FEA5F
:100D0000101E4EEA017E10EB0E0041EB11114FEA6E
:100D1000102E4EEA016E10EB0E0041EB11214FEA4E
:100D2000104E4EEA014E10EB0E0041EB11414018FF
:100D300041F100014FEAD00040EA41704FEAD10191
:100D40004FEA810444EA907410EB800544EB0104FF
:100D50006D1944EB0404521BA3414FF0000348BF3C
:100D60000A3200D530BD401C41F1000130BD2DE9F3
:100D7000F0470D4699469246044600F12408016862
:100D8000880604D5E06921F01001216000E001200F
:100D9000A84201DD471B00E00027A1697A1902EB98
:100DA0000900081AA0612078C00602D42046FFF787
:100DB000C7FC002608E0D4E901211AF80600904794
:100DC000206A401C761C20624E45F4DB2078C00669
:100DD0000AD52046FFF7B4FC06E0D4E90121302013
:100DE0009047206A401C2062381EA7F10107F4DCFE
:100DF00007E0D4E9012118F805009047206A401C5B
:100E00002062281EA5F10105F3DC2046FFF7AEFCA9
:100E10002078000602D50220BDE8F0870120FBE71C
:100E20002DE9FF4F0C461E464FF0FF378BB0D2E93D
:100E30000001DDF860800A908A46C1F30A5505B9C1
:100E40003D46002108464FF00000BAF1000F00F4C3
:100E5000400005DA00EB80004FF4400101EA500049
:100E60004FEA9059B9F1010F00DDB9460A9850EAEE
:100E70004A000ED044F61050A5F2FF3545432F141A
:100E8000B8F1000F1ED07542291E1EDDC9F1000207
:100E90001CE0B8F1010F4FF0000001D0302103E059
:100EA000F24305E02154401CB042FBDB30460022F7
:100EB000002121540B99C1F80880C1E900200FB02E
:100EC000BDE8F08FBD1B6D1CDEE74A4600DA6942C3
:100ED00006A800F0FBFB06AB93E8070003AB83E832
:100EE000070050460A990AF089F88DE80700A0F536
:100EF00000501F3800900398002D0ADD42F21F01B8
:100F00004A460844002303A9039068460AF0F2FA0F
:100F100009E0A0F500504A461F38002303A90390BA
:100F200068460AF0FCFA8DE807000004000C03D0C4
:100F30004FF0FF30410800E01046B8F1000F03D039
:100F40000022009215461EE0751E05D4FFF7CAFE6A
:100F5000303262556D1EF9D5B3460122084302D0E6
:100F600000227F1C04E02078302801D100227F1E5F
:100F7000002A099784D01DE0112D07DAFFF7B2FE91
:100F8000303262556D1C50EA0102F5D1084302D09F
:100F90000098C8B10EE00021681E05E0235C625C89
:100FA00063542254401E491C8142F7DBAB46A81B08
:100FB000401E0990002004F80B000B98099AC0F815
:100FC0000880C0E9002B7AE711264FF0000857E7A8
:100FD0002DE9F04F88460446D21D22F0070191B05A
:100FE000D1E90001CDE90A010AF0D0FB02460B98D5
:100FF000C00F01D02D2007E02068810701D52B20EC
:1010000002E0202101EAC000032A099001D0072A4A
:1010100005DB03464146204600F018FB0BE1207833
:10102000800601D5E06900E00620B8F1650F814631
:1010300006D0B8F1660F18D0B8F1670F70D131E063
:101040000020B9F1110F009001DB112301E009F13B
:1010500001030AAA01A90CA8FFF7E2FEDDE90C7062
:10106000002609F10105834647E001204B46009028
:101070004FF000470AAA01A90CA8FFF7D1FEDDE94D
:101080000DB00C995D46002610B909F101000D184C
:10109000B9EB050003D4C0F1FF3609F10105A5EB5A
:1010A00009002BE0B9F1010F01DA4FF0010900202E
:1010B000B9F1110F0090484601DD112300E003460D
:1010C0000AAA01A90CA8FFF7ABFEDDE90C704D469A
:1010D00000268346207800070AD4AB4500DA5D4637
:1010E00001A8012D04DD411911F8011C302907D098
:1010F0004F4502DA17F1040F04DA012082460FE0AF
:101100006D1EEEE7002F02DCED1B3E4403E0781C71
:10111000A84200DD7D1CB81B00F1010A4FF000471A
:101120002078000703D4AA4501DB4FF0FF3A0021E5
:10113000B7F1004F0DF143088DF8431024D0022081
:101140002B23002F01DA7F422D230A21021EA0F15A
:10115000010000DC5FB197FBF1FC97FBF1F201FBB2
:101160001C7C17460CF1300C08F801CDEEE7A8F115
:10117000010003702188090501D5452100E06521A2
:10118000A0F1010800F8011C09980FA9A1EB0807BC
:10119000FF1D00B10120411901EBEA70A16938443B
:1011A000081A401EA0612078C00602D42046FFF72E
:1011B000C7FA099828B1D4E901219047206A401C58
:1011C00020622078C00622D52046FFF7B9FA1EE03B
:1011D000002E04DBB34502DD01A8805D00E0302075
:1011E000D4E901219047206A401C2062761CAAF1B4
:1011F00001005FEA000A0AD100F024FAC068016821
:10120000405CD4E901219047206A401C2062281EDE
:10121000A5F10105DCDC07E0D4E9012118F8010B98
:101220009047206A401C2062381EA7F10107F3DCBA
:101230002046FFF79BFA032011B041E62DE9F04F5D
:1012400004460D46D21D22F0070089B0D0E9009770
:10125000484639460AF09AFA0246F80F01D02D2383
:1012600007E02068810701D52B2302E0202101EA55
:10127000C0038DF820300BB1012000E00020032ACC
:10128000824601D0072A04DB2946204600F0DEF919
:101290003FE12078800601D40D2500E0E569C7F321
:1012A0000A560D2D49DA00214FEA175B08464FF028
:1012B0000000002F00F4400007DA00EB80004FF43C
:1012C000400100EBD07001EA60008115012901DDC9
:1012D0004FF0FF3100224FEA850CBCF1180F06D306
:1012E0001346ACF118004FF08052C24003E04FF4B7
:1012F000801323FA0CF30CF10C0CBCF1200F04D377
:10130000ACF1200C09FA0CF001E007FA0CF000290E
:101310004FF0004801DD18B90FE00ED140450CD365
:1013200019EB02095F4121B9404502D19F4329EAE7
:101330000209BBEB175F00D0761C2088000502D5A0
:101340007B48784402E07A487844193808AA302368
:1013500002F80A30037C0AF10101002E0AF1020AA8
:1013600053546A4602DC4FF0300101E04FF0310186
:101370004FF001088DF8001002D0A6F2FF3603E00E
:1013800059EA470100D06B4E002D02DC2178090795
:1013900004D54FF002082E218DF80110C44600211B
:1013A0000BE0C7F303433F01C35C491C6D1E02F809
:1013B0000830052908F1010801DA002DF1DC0021CF
:1013C0000CE000EB1973491C1B786D1E082902F80C
:1013D00008304FEA091908F1010801DA002DF0DCA4
:1013E00021688B0602D516E0A8F10108E04505DD6D
:1013F00002EB080313F8013C302BF5D0B8F1000FD5
:1014000009DD02EB080313F8013C2E2B03D1090779
:1014100001D4A8F10108002D05DD3E2102F80810D5
:101420006D1E08F10108407C002E02F8080008F14A
:10143000010804DA2D20764202F8080002E02B2091
:1014400002F808000A214FF47A70864208F1010878
:101450000BDB96FBF0F3303302F8083096FBF0F329
:1014600008F1010800FB136601E0642E0CDB642028
:1014700096FBF0F3303302F8083096FBF0F308F1F6
:10148000010800FB136601E00A2E06DB96FBF1F073
:10149000303002F8080008F1010896FBF1F001FB7A
:1014A0001060303002F80800A16908F1010808EB6B
:1014B000050202EB0A00081AA0612078C00602D4D7
:1014C0002046FFF73DF9216A08AE01EB0A002062D1
:1014D00004E0D4E9012116F8010B9047BAF1010AA2
:1014E000F7D22078C00602D52046FFF729F96E46CC
:1014F00009E016F8010B3E280FD0D4E901219047EE
:10150000206A401C2062B8F10108F2D22046FFF7A1
:101510002DF909B00320BDE8F08F206A284420622D
:1015200003E0D4E90121302090476D1EEBD3F8E7AA
:1015300056A5000002FCFFFF10B5436913B1AFF3DD
:10154000008001E0FFF735F9012010BD127800F1AD
:1015500024010A7000224A700122EDE711684FF061
:10156000FF32E9E710B5436913B1AFF3008001E042
:10157000FFF7B8F9012010BD128800F12401828420
:101580000022C2840122EDE711684FF0FF32E9E743
:101590002DE9F04116460C46054600F04BF803686D
:1015A00093F80101012807D0FF2C12D8185D80B1F3
:1015B00001202C70BDE8F081D3F8070132462146A6
:1015C00003F20713C7182846BC46BDE8F0410023C4
:1015D00060474FF0FF30EDE710B500F0F7F8BDE8D9
:1015E000104000F0EEB870477546FFF75DFBAE4661
:1015F00005006946534620F00700854618B020B51F
:10160000FEF702FFBDE820404FF000064FF0000754
:101610004FF000084FF0000BAC46ACE8C009ACE856
:10162000C009ACE8C009ACE8C00921F007018D464B
:101630007047000010B500F005F8001D10BD00BF98
:10164000B9A1000000487047300000242DE9F041A6
:101650001F46044603260168072A01F4006004DBE4
:1016600008B116A505E016A503E008B115A500E030
:1016700015A521F010002060A069C01EA0610FB167
:10168000401EA0612046FFF75BF84FB1D4E901216D
:1016900038469047206A401C2062C01C206206E049
:1016A000206AFAE7D4E9012115F8010B9047761E6C
:1016B000F8D22046FFF75AF8BDE8F0814E414E00BF
:1016C0006E616E00494E4600696E66002DE9F04776
:1016D000814616468AB0354878440DC88DE80D001D
:1016E00032487844801C03AC0DC884E80D0041F6F4
:1016F0009B300844372190FBF1F290FBF1F5A5F106
:10170000800501FB12041B3C02D56442012000E06D
:101710000020DFF898A080460027FA44AAF1BE0A0C
:101720000EE0E0070AD03246684607EB4701012386
:101730000AEB810109F0F3FE8DE8070064107F1CBD
:10174000002CEED1194F7F44AE3F19E0E80715D0C9
:1017500007EB04100DF1180A90E80E008AE80E005D
:10176000C068F04201D1981908903246012306A9B9
:1017700003A809F0D4FE03AB83E807006D10641CD6
:10178000002DE3D14FF0010332466946B8F1000F56
:1017900003A802D009F0AEFE01E009F0C0FEC9E9DD
:1017A0000001C9F808200AB0BDE8F08750A2000087
:1017B00010B50446AFF300802046BDE81040FEF7A8
:1017C0000EBE002801D000F029B8704710B50128DE
:1017D00005D0002103A000F027F8012010BD09A1C9
:1017E000F8E7000053494752544D454D3A204F7594
:1017F00074206F662068656170206D656D6F727909
:10180000000000003A2048656170206D656D6F72C0
:101810007920636F727275707465640001491820D5
:10182000ABBEFEE72600020070B505460C460A2056
:1018300000E06D1C00F052F835B128780028F8D18E
:1018400002E0641C00F04AF814B120780028F8D1B6
:10185000BDE870400A2000F041B800000000000020
:1018600030B44FF0013C50F8042BCCFA52F451F84C
:10187000043BD51A20D1FCB950F8042BCCFA52F411
:1018800051F8043BD51A17D1B4B950F8042BCCFA4F
:1018900052F451F8043BD51A0ED16CB950F8042B10
:1018A000CCFA52F451F8043BD51A05D1002CDAD009
:1018B00030BC4FF00000704729BAB1FA81F111F045
:1018C0001801D1F120008440F2D1CA40CB4012F07F
:1018D000FF0213F0FF0330BCD01A704708B5694609
:1018E0008DF800000320ABBE08BD00000000000022
:1018F000FFE7FEE700000000704700000000000066
:1019000081B0EFF3108072B60090FFE7FEE70000B1
:1019100080B588B08DF81B009DF81B2069460A2011
:101920008860022048600DF11900086040F29400C0
:10193000C2F20040A121012300F0A6FD9DF819008C
:101940009DF81A1040EA012000B200EE100AB8EE2D
:10195000C00A8DED050A9DF81B10A1F13400049119
:1019600003280AD3FFE704983738032816D3FFE784
:1019700004983D3803281AD326E09DED050AB3EEFE
:10198000001A20EE010AB7EEC00A9FED111B20EEEF
:10199000010BB7EEC00B8DED070A15E09DED050AB2
:1019A0009FED0F1A80EE010A8DED070A0CE09DED08
:1019B000050A9FED091A20EE010A9FED081A80EE34
:1019C000010A8DED070AFFE79DED070A08B080BD0B
:1019D0009A9999999999234000003443000000474F
:1019E0000000FA440000000090B00F900E9100201B
:1019F0000D908020C5F600000A90FFE70E98006861
:101A00000D99C840002800F0CF81FFE70E980068CC
:101A10000D9A0121914008400C900C98002800F08C
:101A2000BF81FFE70E98406800F00300012807D04F
:101A3000FFE70E98406800F0030002282FD1FFE76F
:101A40000F9880680B900D984100032000FA01F177
:101A50000B9888430B900E98C0680D99490000FAC6
:101A600001F10B9808430B900B980F9988600F9821
:101A700040680B900D99012000FA01F10B98884302
:101A80000B900E984068C0F300100D9900FA01F118
:101A90000B9808430B900B980F994860FFE70E983E
:101AA000406800F00300032818D0FFE70F98C068D3
:101AB0000B900D984100032000FA01F10B98884328
:101AC0000B900E9880680D99490000FA01F10B986F
:101AD00008430B900B980F99C860FFE70E98406879
:101AE00000F00300022826D1FFE70F980D996FF050
:101AF000030202EA51010844006A0B900D9800F0BD
:101B0000070081000F2000FA01F10B9888430B9029
:101B10000E9800690D9901F00701890000FA01F1A2
:101B20000B9808430B900B980F990D9B02EA5302F8
:101B300011440862FFE70F9800680B900D98410070
:101B4000032000FA01F10B9888430B900E9840682F
:101B500000F003000D99490000FA01F10B980843C9
:101B60000B900B980F9908600E98807980070028D9
:101B700000F01581FFE7FFE744F2F440C5F60200EC
:101B8000016841F002010160006800F00200099064
:101B90000998FFE70D9820F0030040F20841C5F6D0
:101BA000000140580B900D9800F0030081000F20B9
:101BB00000FA01F10B9888430B900F980021C5F6AD
:101BC0000201884203D1FFE7002008907AE00F98D5
:101BD00040F20041C5F60201884203D1FFE701202F
:101BE00007906CE00F9840F60001C5F602018842AC
:101BF00003D1FFE7022006905EE00F9840F6004117
:101C0000C5F60201884203D1FFE70320059050E0AA
:101C10000F9841F20001C5F60201884203D1FFE7A7
:101C20000420049042E00F9841F20041C5F6020101
:101C3000884203D1FFE70520039034E00F9841F676
:101C40000001C5F60201884203D1FFE70620029099
:101C500026E00F9841F60041C5F60201884203D103
:101C6000FFE70720019018E00F9842F20001C5F647
:101C70000201884203D1FFE7082000900AE00F9993
:101C800042F20042C5F602020A20914208BF092032
:101C90000090FFE700980190FFE701980290FFE7AE
:101CA00002980390FFE703980490FFE704980590DB
:101CB000FFE705980690FFE706980790FFE707986B
:101CC0000890FFE708980D9901F00301890000FAD8
:101CD00001F10B9808430B900B980D9921F003012B
:101CE00040F20842C5F6000288504FF0B04000684C
:101CF0000B900C990B9888430B900E988079C00636
:101D0000002805D5FFE70C990B9808430B90FFE7D7
:101D10000B984FF0B04108600420C5F60000006841
:101D20000B900C990B9888430B900E988079800645
:101D3000002805D5FFE70C990B9808430B90FFE7A7
:101D40000B980421C5F6000108600A9840680B90C2
:101D50000C990B9888430B900E9880798007002887
:101D600005D5FFE70C990B9808430B90FFE70B98FC
:101D70000A9948600A9800680B900C990B98884360
:101D80000B900E988079C00728B1FFE70C990B984B
:101D900008430B90FFE70B980A990860FFE7FFE7FD
:101DA0000D9801300D9029E610B07047000000003A
:101DB00082B00190ADF802108DF801209DF801006D
:101DC00028B1FFE7BDF802000199886105E0BDF880
:101DD0000200000401998861FFE702B0704700002B
:101DE00041F20000C5F600400068000C704700009A
:101DF00040F22470C2F2004000687047000000000A
:101E000083B001900091019890F8410020283BD1C7
:101E1000FFE7FFE7019890F84000012804D1FFE7B1
:101E200002208DF80B0033E00199012081F8400079
:101E3000FFE7FFE70199242081F84100019801683C
:101E4000086820F00100086001980168086820F423
:101E500080500860009A0198016808681043086083
:101E600001980168086840F001000860019920208D
:101E700081F84100FFE70199002081F84000FFE769
:101E800000208DF80B0003E002208DF80B00FFE727
:101E90009DF80B0003B0704784B002900191029846
:101EA00090F84100202840D1FFE7FFE7029890F822
:101EB0004000012804D1FFE702208DF80F0038E030
:101EC0000299012081F84000FFE7FFE702992420F2
:101ED00081F8410002980168086820F0010008605C
:101EE0000298006800680090009820F470600090EC
:101EF0000199009840EA0120009000980299096831
:101F0000086002980168086840F0010008600299C2
:101F1000202081F84100FFE70299002081F840006D
:101F2000FFE700208DF80F0003E002208DF80F007E
:101F3000FFE79DF80F0004B07047000000000000AC
:101F400080B582B00090009820B9FFE701208DF89D
:101F5000070073E0009890F8410040B9FFE700994E
:101F6000002081F84000009800F0D6FBFFE70099C0
:101F7000242081F8410000980168086820F00100E1
:101F8000086000980168406820F07060086100985F
:101F90000168886820F4004088600098C0680128C3
:101FA00007D1FFE700980168806840F4004088602E
:101FB00006E000980168806840F404408860FFE70C
:101FC0000098C068022806D1FFE7009801684FF426
:101FD00000604860FFE700980168486848F2000226
:101FE000C0F200221043486000980168C86820F4DD
:101FF0000040C860009A11681069536992691843DB
:1020000040EA0220C860009A1168D069126A104341
:10201000086000980168086840F0010008600099B5
:1020200000204864009A202182F84110009908633A
:10203000009981F842008DF80700FFE79DF807003E
:1020400002B080BD0000000080B588B0DDF828C077
:102050000690ADF816100492ADF80E30069890F880
:102060004100202840F0F680FFE7FFE7069890F84F
:102070004000012804D1FFE702208DF81F00EDE0A9
:102080000699012081F84000FFE7FFE7FFF7B0FE67
:102090000290069802996A4611604FF400410122AD
:1020A000192304F009FF20B1FFE701208DF81F007C
:1020B000D4E00699222081F841000699102081F889
:1020C00042000699002048640499069A5162BDF8BE
:1020D0000E10069A5185069948630698408DB0F512
:1020E000807F14D3FFE70699FF2008850698BDF886
:1020F000161090F82820EC4642F20043C8F2000384
:10210000CCF800304FF0807304F0AAFE14E006987B
:10211000408D069908850698BDF8161090F828207D
:10212000EC4642F20043C8F20003CCF800304FF016
:10213000007304F095FEFFE7FFE70698408D002846
:102140005FD0FFE706980A99029A04F00DFF20B1CC
:10215000FFE701208DF81F0080E006980068406AC4
:102160000699496A08700699486A013048620699DA
:10217000088D013808850699488D013848850698EC
:10218000408DE8B3FFE70698008DC8BBFFE70698CF
:102190000A9B02996A4611608021002204F08CFE9D
:1021A00020B1FFE701208DF81F0057E00698408D11
:1021B000B0F5807F11D3FFE70699FF2008850698C8
:1021C000BDF8161090F82820EC460023CCF800301B
:1021D0004FF0807304F044FE11E00698408D06999C
:1021E00008850698BDF8161090F82820EC460023C4
:1021F000CCF800304FF0007304F032FEFFE7FFE749
:102200009BE706980A99029A04F04EFF20B1FFE777
:1022100001208DF81F0021E0069801682020C86188
:1022200006990A6851684EF60003CFF6006319401C
:102230005160069981F841000699002081F842001A
:10224000FFE70699002081F84000FFE700208DF8A5
:102250001F0003E002208DF81F00FFE79DF81F001C
:1022600008B080BD0000000080B588B0DDF828C04F
:102270000690ADF816100492ADF80E30069890F85E
:102280004100202840F0F580FFE7FFE7069890F82E
:102290004000012804D1FFE702208DF81F00ECE088
:1022A0000699012081F84000FFE7FFE7FFF7A0FD56
:1022B0000290069802996A4611604FF4004101228B
:1022C000192304F0F9FD20B1FFE701208DF81F006C
:1022D000D3E00699212081F841000699102081F869
:1022E00042000699002048640499069A5162BDF89C
:1022F0000E10069A5185069948630698408DB0F5F0
:10230000807F14D3FFE70699FF2008850698BDF863
:10231000161090F82820EC4642F20003C8F20003A1
:10232000CCF800304FF0807304F09AFD14E006986A
:10233000408D069908850698BDF8161090F828205B
:10234000EC4642F20003C8F20003CCF800304FF034
:10235000007304F085FDFFE7FFE70698408D002835
:102360005ED0FFE706980A99029A04F0F1FE20B1C8
:10237000FFE701208DF81F007FE006980168406AA2
:10238000007888620699486A013048620699488D4B
:10239000013848850699088D013808850698408DD2
:1023A000E8B3FFE70698008DC8BBFFE706980A9BD5
:1023B00002996A4611608021002204F07DFD20B15F
:1023C000FFE701208DF81F0057E00698408DB0F51B
:1023D000807F11D3FFE70699FF2008850698BDF896
:1023E000161090F82820EC460023CCF800304FF06F
:1023F000807304F035FD11E00698408D069908853C
:102400000698BDF8161090F82820EC460023CCF86A
:1024100000304FF0007304F023FDFFE7FFE79CE777
:1024200006980A99029A04F03FFE20B1FFE70120C6
:102430008DF81F0021E0069801682020C8610699E8
:102440000A6851684EF60003CFF6006319405160E8
:10245000069981F841000699002081F84200FFE7C3
:102460000699002081F84000FFE700208DF81F004A
:1024700003E002208DF81F00FFE79DF81F0008B061
:1024800080BD00000000000010B588B084460C98A4
:102490000B98DDF828E0CDF818C0ADF81610ADF8AF
:1024A0001420ADF81230ADF81000069890F84100F5
:1024B000202840F02681FFE70A9820B1FFE7BDF809
:1024C000100040B9FFE706994FF4007048640120FE
:1024D0008DF81F0019E1FFE7069890F840000128E9
:1024E00004D1FFE702208DF81F000EE106990120BC
:1024F00081F84000FFE7FFE7FFF77AFC03900698BA
:1025000003996A4611604FF400410122192304F037
:10251000D3FC20B1FFE701208DF81F00F5E00699FC
:10252000222081F841000699402081F84200069956
:10253000002048640A99069A5162BDF81010069A64
:102540005185069948630698BDF81610BDF8142009
:10255000BDF81230DDF830C0039CEE46CEF80440E2
:10256000CEF800C004F01CFC50B1FFE7FFE706996D
:10257000002081F84000FFE701208DF81F00C4E033
:102580000698408DB0F5807F14D3FFE70699FF20B1
:1025900008850698BDF8161090F82820EC4642F2FF
:1025A0000043C8F20003CCF800304FF0807304F011
:1025B00057FC14E00698408D069908850698BDF8EA
:1025C000161090F82820EC4642F20043C8F20003AF
:1025D000CCF800304FF0007304F042FCFFE7FFE757
:1025E00006980C9B03996A4611600421002204F0AE
:1025F00063FC20B1FFE701208DF81F0085E00698FD
:102600000068406A0699496A08700699486A01306C
:1026100048620699088D013808850699488D013869
:1026200048850698408DE8B3FFE70698008DC8BB43
:10263000FFE706980C9B03996A46116080210022EF
:1026400004F03AFC20B1FFE701208DF81F005CE0A8
:102650000698408DB0F5807F11D3FFE70699FF20E3
:1026600008850698BDF8161090F82820EC4600233F
:10267000CCF800304FF0807304F0F2FB11E00698C4
:10268000408D069908850698BDF8161090F8282008
:10269000EC460023CCF800304FF0007304F0E0FB70
:1026A000FFE7FFE7FFE70698408D002898D1FFE796
:1026B00006980C99039A04F0F7FC20B1FFE701207B
:1026C0008DF81F0021E0069801682020C861069956
:1026D0000A6851684EF60003CFF600631940516056
:1026E000069981F841000699002081F84200FFE731
:1026F0000699002081F84000FFE700208DF81F00B8
:1027000003E002208DF81F00FFE79DF81F0008B0CE
:1027100010BD00000000000080B5B8B03790002068
:102720003690359034903390329002A8C021FDF756
:102730008BFF3798006845F20041C4F200018842DF
:102740003CD1FFE70020039008210291239002A8CA
:1027500000F022FC18B1FFE7FFF7D2F8FFE7FFE730
:1027600044F2E040C5F60200016841F00201016058
:10277000006800F0020001900198FFE7C02032904D
:10278000122033900020349035900420369040F28F
:102790000040C5F6020032A9FFF726F9FFE744F230
:1027A000E840C5F60200016841F4001101600068CC
:1027B00000F4001000900098FFE7FFE738B080BDFC
:1027C00040F20800C2F20040027840F22471C2F2E6
:1027D00000410868104408607047000000000000D5
:1027E00080B582B0032000F0B7F801F0C5FE44F2D6
:1027F0001842C5F602021168C1F303234BF64411D7
:10280000C0F60001CB5C03F01F03D8400090009895
:10281000126802F00F02895C01F01F01C84040F20B
:102820000401C2F200410860009840F20001C2F2C7
:10283000004108600F2000F013F820B1FFE70120ED
:102840008DF8070005E000F04FF800208DF8070034
:10285000FFE79DF8070002B080BD00000000000007
:1028600080B582B0009040F20800C2F200400078CB
:1028700020B9FFE701208DF8070030E040F20000AA
:10288000C2F20040006840F20801C2F200410A783A
:102890004FF47A71B1FBF2F1B0FBF1F002F0A0FD60
:1028A00020B1FFE701208DF8070018E000980F28FD
:1028B0000DD8FFE700994FF0FF30002200F034F808
:1028C000009840F20C01C2F20041086003E00120D0
:1028D0008DF8070003E000208DF80700FFE79DF862
:1028E000070002B080BD000081B0FFE744F2F44071
:1028F000C5F60200016841F002010160006800F0C5
:10290000020000900098FFE701B07047000000004F
:1029100080B582B0ADF80600BDF9060006F044FFB0
:1029200002B080BD0000000080B586B0ADF8160092
:102930000491039206F050FF0290BDF91600019039
:1029400002980499039A04F0FFFF0146019806F0EB
:102950004BFF06B080BD000080B582B001900198A9
:1029600006F066FF02B080BD80B584B0029044F6E8
:102970000C00C5F60200006800F004010020B0EB76
:10298000910F13D1FFE744F60C00C5F60200006872
:1029900000F007000299884204D0FFE701208DF87B
:1029A0000F002EE000208DF80F002AE044F60C0105
:1029B000C5F60201086820F00700029A104308607B
:1029C000FFF716FA0190FFE744F60400C5F602008F
:1029D000006800F400510020B0EB513F0DD1FFE73B
:1029E000FFF706FA0199401AB0F57A7F04D9FFE79C
:1029F00001208DF80F0004E0E6E700208DF80F00BD
:102A0000FFE79DF80F0004B080BD0000000000004B
:102A100080B501F05DFD44F22041C5F60201096870
:102A2000C1F302124BF64411C0F60001895C01F0BB
:102A30001F01C84080BD000088B0079044F22840C4
:102A4000C5F60200016801F0030106910068C0F3B9
:102A50000530059044F22C40C5F602000068C0F332
:102A600000100490049844F23C41C5F60201096844
:102A700089B2C908484300EE100AB8EE400A8DED4D
:102A8000020A0598002800F01B81FFE706980090D5
:102A900048B1FFE70098012869D0FFE700980228B5
:102AA00000F08980ABE044F20040C5F60200006807
:102AB00000F020010020B0EB511F33D0FFE744F2BB
:102AC0000040C5F602000068C0F3C10149F20000F1
:102AD000C0F2D030C84003909DED030AB8EE400A22
:102AE0009DED051AB8EE411A80EE010A44F2384015
:102AF000C5F6020000686FF35F2001EE100AB8EE21
:102B0000411A9DED022A9FED743A82EE032A31EEBE
:102B1000021AB7EE002A31EE021A20EE010A8DEDFC
:102B2000010A23E09DED050AB8EE401A9FED6C0AFC
:102B300080EE010A44F23840C5F6020000686FF3E7
:102B40005F2001EE100AB8EE411A9DED022A9FEDBA
:102B5000623A82EE032A31EE021AB7EE002A31EE13
:102B6000021A20EE010A8DED010AFFE76BE09DEDF0
:102B7000050AB8EE401A9FED590A80EE010A44F2A8
:102B80003840C5F6020000686FF35F2001EE100ABE
:102B9000B8EE411A9DED022A9FED4F3A82EE032ACC
:102BA00031EE021AB7EE002A31EE021A20EE010AC7
:102BB0008DED010A47E09DED050AB8EE401A9FED44
:102BC000450A80EE010A44F23840C5F6020000686A
:102BD0006FF35F2001EE100AB8EE411A9DED022A54
:102BE0009FED3D3A82EE032A31EE021AB7EE002A3B
:102BF00031EE021A20EE010A8DED010A23E09DED6F
:102C0000050AB8EE401A9FED350A80EE010A44F23B
:102C10003840C5F6020000686FF35F2001EE100A2D
:102C2000B8EE411A9DED022A9FED2B3A82EE032A5F
:102C300031EE021AB7EE002A31EE021A20EE010A36
:102C40008DED010AFFE79DED010A44F23840C5F61B
:102C50000200016889B2490A01EE101AB8EE411A61
:102C6000B7EE002A31EE021A80EE010A0799BCEE97
:102C7000C00A81ED000A9DED010A0168C1F3064119
:102C800001EE101AB8EE411A31EE021A80EE010A76
:102C90000799BCEEC00A81ED010A9DED010A0068AA
:102CA000C0F3066001EE100AB8EE411A31EE021AC6
:102CB00080EE010A0798BCEEC00A80ED020A07E028
:102CC0000799002008600799486007998860FFE726
:102CD00008B0704720BCBE4B000000460024744A78
:102CE0000024744C0000000088B0079044F2284093
:102CF000C5F60200016801F0030106910068C0F307
:102D00000550059044F22C40C5F602000068C0F35F
:102D100000200490049844F24441C5F60201096879
:102D200089B2C908484300EE100AB8EE400A8DED9A
:102D3000020A0598002800F01B81FFE70698009022
:102D400048B1FFE70098012869D0FFE70098022802
:102D500000F08980ABE044F20040C5F60200006854
:102D600000F020010020B0EB511F33D0FFE744F208
:102D70000040C5F602000068C0F3C10149F200003E
:102D8000C0F2D030C84003909DED030AB8EE400A6F
:102D90009DED051AB8EE411A80EE010A44F240405A
:102DA000C5F6020000686FF35F2001EE100AB8EE6E
:102DB000411A9DED022A9FED743A82EE032A31EE0C
:102DC000021AB7EE002A31EE021A20EE010A8DED4A
:102DD000010A23E09DED050AB8EE401A9FED6C0A4A
:102DE00080EE010A44F24040C5F6020000686FF32D
:102DF0005F2001EE100AB8EE411A9DED022A9FED08
:102E0000623A82EE032A31EE021AB7EE002A31EE60
:102E1000021A20EE010A8DED010AFFE76BE09DED3D
:102E2000050AB8EE401A9FED590A80EE010A44F2F5
:102E30004040C5F6020000686FF35F2001EE100A03
:102E4000B8EE411A9DED022A9FED4F3A82EE032A19
:102E500031EE021AB7EE002A31EE021A20EE010A14
:102E60008DED010A47E09DED050AB8EE401A9FED91
:102E7000450A80EE010A44F24040C5F602000068AF
:102E80006FF35F2001EE100AB8EE411A9DED022AA1
:102E90009FED3D3A82EE032A31EE021AB7EE002A88
:102EA00031EE021A20EE010A8DED010A23E09DEDBC
:102EB000050AB8EE401A9FED350A80EE010A44F289
:102EC0004040C5F6020000686FF35F2001EE100A73
:102ED000B8EE411A9DED022A9FED2B3A82EE032AAD
:102EE00031EE021AB7EE002A31EE021A20EE010A84
:102EF0008DED010AFFE79DED010A44F24040C5F661
:102F00000200016889B2490A01EE101AB8EE411AAE
:102F1000B7EE002A31EE021A80EE010A0799BCEEE4
:102F2000C00A81ED000A9DED010A0168C1F3064166
:102F300001EE101AB8EE411A31EE021A80EE010AC3
:102F40000799BCEEC00A81ED010A9DED010A0068F7
:102F5000C0F3066001EE100AB8EE411A31EE021A13
:102F600080EE010A0798BCEEC00A80ED020A07E075
:102F70000799002008600799486007998860FFE773
:102F800008B0704720BCBE4B000000460024744AC5
:102F90000024744C0000000080B59AB01890002006
:102FA0008DF857008DF856001898C0780007002853
:102FB00048D5FFE71898806E149078B1FFE7149811
:102FC000B0F5801F13D0FFE71498B0F5001F16D09E
:102FD000FFE71498B0F5401F19D019E044F22C41D6
:102FE000C5F60201086840F40030086014E0189843
:102FF0000830022104F0E4FC8DF857000CE018982A
:103000002830022104F0C4FD8DF8570004E003E0ED
:1030100001208DF85700FFE79DF8570060B9FFE7E2
:1030200044F25041C5F60201086820F44010189A95
:10303000926E1043086004E09DF857008DF856002A
:10304000FFE7FFE718984078C007002840D0FFE767
:103050001898806D1390042820D81399DFE801F0A8
:10306000030C141C1D0044F22C41C5F60201086833
:1030700040F40030086015E018980830002104F092
:103080009FFC8DF857000DE018982830002104F0BF
:103090007FFD8DF8570005E004E003E001208DF886
:1030A0005700FFE79DF8570060B9FFE744F2504131
:1030B000C5F60201086820F00700189A926D1043C7
:1030C000086004E09DF857008DF85600FFE7FFE721
:1030D00018984078800700284BD5FFE71898C06DF6
:1030E000129088B1FFE71298402816D0FFE7129897
:1030F00080281AD0FFE71298C0281ED0FFE7129848
:10310000B0F5807F1AD01AE044F22C41C5F60201D6
:10311000086840F40030086015E018980830002175
:1031200004F04EFC8DF857000DE01898283000216F
:1031300004F02EFD8DF8570005E004E003E00120C7
:103140008DF85700FFE79DF8570060B9FFE744F29C
:103150005041C5F60201086820F4E070189AD26D5B
:103160001043086004E09DF857008DF85600FFE713
:10317000FFE7189840784007002850D5FFE71898D7
:10318000D0F8A8001190A0B1FFE71198B0F5001F8A
:1031900018D0FFE71198B0F5800F1BD0FFE711980A
:1031A000B0F5C00F1ED0FFE71198B0F5000F1AD090
:1031B0001AE044F22C41C5F60201086840F40030E0
:1031C000086015E018980830002104F0F9FB8DF82C
:1031D00057000DE018982830002104F0D9FC8DF834
:1031E000570005E004E003E001208DF85700FFE7F9
:1031F0009DF8570068B9FFE744F25841C5F602014F
:10320000086820F46000189AD2F8A82010430860DB
:1032100004E09DF857008DF85600FFE7FFE7189887
:1032200040780007002850D5FFE71898D0F8AC0088
:103230001090A0B1FFE71098B0F1807F18D0FFE7A1
:103240001098B0F1007F1BD0FFE71098B0F1407FDD
:103250001ED0FFE71098B0F1806F1AD01AE044F248
:103260002C41C5F60201086840F40030086015E002
:1032700018980830002104F0A3FB8DF857000DE0EA
:1032800018982830002104F083FC8DF8570005E0E1
:1032900004E003E001208DF85700FFE79DF8570098
:1032A00068B9FFE744F25841C5F60201086820F00A
:1032B000E060189AD2F8AC201043086004E09DF852
:1032C00057008DF85600FFE7FFE71898C078800791
:1032D00000283ED5FFE71898C06C0F90F0B1FFE7CB
:1032E0000F98102808D0FFE70F9820280DD0FFE78F
:1032F0000F98302811D012E044F22C41C5F602019B
:10330000086840F4003008600DE018980830022189
:1033100004F056FB8DF8570005E004E003E00120BF
:103320008DF85700FFE79DF8570060B9FFE744F2BA
:103330004C41C5F60201086820F03000189AD26CA2
:103340001043086004E09DF857008DF85600FFE731
:10335000FFE718984078C00600284ED5FFE7189878
:10336000006E0E90A0B1FFE70E98B0F5805F18D008
:10337000FFE70E98B0F5005F1BD0FFE70E98B0F5A1
:10338000405F1ED0FFE70E98B0F5804F1AD01AE0CC
:1033900044F22C41C5F60201086840F40030086090
:1033A00015E018980830002104F00AFB8DF857004A
:1033B0000DE018982830002104F0EAFB8DF8570042
:1033C00005E004E003E001208DF85700FFE79DF8D9
:1033D000570060B9FFE744F25041C5F602010868A2
:1033E00020F4E040189A126E1043086004E09DF843
:1033F00057008DF85600FFE7FFE7189840788006E1
:1034000000284CD5FFE71898406E0D90C8B1FFE733
:103410000D98B0F5803F15D0FFE70D98B0F5003F4F
:1034200018D0FFE70D98B0F5403F1BD0FFE70D988F
:10343000B0F5802F17D0FFE70D98B0F5A02F13D06F
:1034400013E016E018980830012104F0B9FA8DF85D
:1034500057000EE018982830012104F099FB8DF8F0
:10346000570006E005E004E003E001208DF8570076
:10347000FFE79DF8570060B9FFE744F25041C5F6F9
:103480000201086820F4E020189A526E1043086088
:1034900004E09DF857008DF85600FFE7FFE7189805
:1034A0004078400600284ED5FFE71898D0F8B000C5
:1034B0000C90C8B1FFE70C98B0F1805F15D0FFE722
:1034C0000C98B0F1005F18D0FFE70C98B0F1405FA6
:1034D0001BD0FFE70C98B0F1804F17D0FFE70C9896
:1034E000B0F1A04F13D013E016E018980830012176
:1034F00004F066FA8DF857000EE018982830012184
:1035000004F046FB8DF8570006E005E004E003E018
:1035100001208DF85700FFE79DF8570068B9FFE7D5
:1035200044F25841C5F60201086820F0E040189ABC
:10353000D2F8B0201043086004E09DF857008DF8E1
:103540005600FFE7FFE718984078000600283BD5B3
:10355000FFE71898006F0B90D8B1FFE70B98B0F118
:10356000805F05D0FFE70B98B0F1005F09D011E054
:1035700044F22C41C5F60201086840F400300860AE
:103580000CE018980830012104F01AFA8DF8570061
:1035900004E003E001208DF85700FFE79DF8570095
:1035A00060B9FFE744F25041C5F60201086820F017
:1035B0004050189A126F1043086004E09DF85700BD
:1035C0008DF85600FFE7FFE71898C078C00700287D
:1035D00037D0FFE71898806C0A90032817D80A990B
:1035E000DFE801F014020B1344F22C41C5F602018E
:1035F000086840F4003008600DE018980830022197
:1036000004F0DEF98DF8570005E004E003E0012046
:103610008DF85700FFE79DF8570060B9FFE744F2C7
:103620004C41C5F60201086820F00300189A926C1C
:103630001043086004E09DF857008DF85600FFE73E
:10364000FFE7189880784006002840F1B480FFE733
:1036500044F60001C5F60201086840F48070086075
:10366000FEF7C6FB1690FFE744F60000C5F6020021
:103670000068C00500280CD4FFE7FEF7B9FB1699D7
:10368000401A652804D3FFE703208DF8570000E0B7
:10369000EAE79DF85700002840F08780FFE744F2F2
:1036A0007040C5F60200006800F440701899D1F827
:1036B000B41001F44071884213D0FFE744F2704126
:1036C000C5F60201086820F440701790086840F4BD
:1036D00080300860086820F480300860179808601F
:1036E000FFE71898D0F8B400B0F5807F1FD1FFE74E
:1036F000FEF77EFB1690FFE744F27040C5F602002D
:10370000006800F002010020B0EB510F0ED1FFE77E
:10371000FEF76EFB1699401A41F28931884204D3B4
:10372000FFE703208DF8570000E0E5E7FFE79DF88D
:103730005700A0BBFFE7FFE71898D0F8B40000F4EB
:103740004070B0F5407F13D1FFE744F21041C5F659
:103750000201086820F47C50189AD2F8B4204FF681
:10376000F043C0F6FF731A4040EA1210086008E008
:1037700044F21041C5F60201086820F47C5008604C
:10378000FFE71898D0F8B4206FF31F3244F270416D
:10379000C5F60201086810430860FFE704E09DF8E1
:1037A00057008DF85600FFE704E09DF857008DF8AC
:1037B0005600FFE7FFE718980068C007002800F0F0
:1037C0004C80FFE71898C06F099028282BD80999DA
:1037D000DFE801F01529292929292929162929296C
:1037E000292929291E292929292929292629292957
:1037F000292929292729292929292929280016E0C1
:1038000018980830012104F0DBF88DF857000EE01D
:1038100018982830012104F0BBF98DF8570006E014
:1038200005E004E003E001208DF85700FFE79DF874
:10383000570060B9FFE744F25441C5F60201086839
:1038400020F03800189AD26F1043086004E09DF809
:1038500057008DF85600FFE7FFE7189800788007BB
:10386000002839D5FFE71898806F0890052819D8E7
:103870000899DFE801F003040C14151616E01898F7
:103880000830012104F09CF88DF857000EE01898DC
:103890002830012104F07CF98DF8570006E005E09E
:1038A00004E003E001208DF85700FFE79DF8570082
:1038B00060B9FFE744F25441C5F60201086820F000
:1038C0000700189A926F1043086004E09DF85700B3
:1038D0008DF85600FFE7FFE71898007840070028AA
:1038E0003BD5FFE71898D0F894000790052819D821
:1038F0000799DFE801F003040C14151616E0189878
:103900000830012104F05CF88DF857000EE018989B
:103910002830012104F03CF98DF8570006E005E05D
:1039200004E003E001208DF85700FFE79DF8570001
:1039300068B9FFE744F25841C5F60201086820F073
:103940000700189AD2F894201043086004E09DF80C
:1039500057008DF85600FFE7FFE7189800788006BB
:1039600000284ED5FFE71898D0F890000690C8B10F
:10397000FFE70698B0F1805F15D0FFE70698B0F139
:10398000005F18D0FFE70698B0F1405F1BD0FFE75B
:103990000698B0F1804F17D0FFE70698B0F1A04F1E
:1039A00013D013E016E018980830002104F008F84E
:1039B0008DF857000EE018982830022104F0E8F83E
:1039C0008DF8570006E005E004E003E001208DF8E3
:1039D0005700FFE79DF8570068B9FFE744F25441EC
:1039E000C5F60201086820F0E040189AD2F890204D
:1039F0001043086004E09DF857008DF85600FFE77B
:103A0000FFE718980078400600284ED5FFE7189881
:103A1000D0F89C000590C8B1FFE70598B0F5806F1D
:103A200015D0FFE70598B0F5006F18D0FFE70598AF
:103A3000B0F5406F1BD0FFE70598B0F5805F17D059
:103A4000FFE70598B0F5A05F13D013E016E01898D3
:103A50000830002103F0B4FF8DF857000EE01898ED
:103A60002830022104F094F88DF8570006E005E0B4
:103A700004E003E001208DF85700FFE79DF85700B0
:103A800068B9FFE744F25841C5F60201086820F41E
:103A9000E050189AD2F89C201043086004E09DF88A
:103AA00057008DF85600FFE7FFE7189800780006EA
:103AB00000284ED5FFE71898D0F8A0000490C8B1B0
:103AC000FFE70498B0F5005F15D0FFE70498B0F564
:103AD000804F18D0FFE70498B0F5C04F1BD0FFE728
:103AE0000498B0F5004F17D0FFE70498B0F5204FC9
:103AF00013D013E016E018980830002103F060FF9F
:103B00008DF857000EE018982830022104F040F894
:103B10008DF8570006E005E004E003E001208DF891
:103B20005700FFE79DF8570068B9FFE744F2584196
:103B3000C5F60201086820F46040189AD2F8A02067
:103B40001043086004E09DF857008DF85600FFE729
:103B5000FFE7189800780007002820D5FFE718989D
:103B6000D0F88400B0F5805F0CD1FFE718982830BA
:103B7000022104F00DF820B1FFE701208DF8560076
:103B8000FFE7FFE744F25441C5F60201086820F45C
:103B90004050189AD2F8842010430860FFE7189824
:103BA0000078C006002820D5FFE71898D0F89800C4
:103BB000B0F5807F0CD1FFE718982830022103F080
:103BC000E7FF20B1FFE701208DF85600FFE7FFE790
:103BD00044F25841C5F60201086820F44070189A72
:103BE000D2F8982010430860FFE718988078000703
:103BF00000283CD5FFE71898D0F8A400039050B1F6
:103C0000FFE70398B0F5803F0DD0FFE70398B0F5CC
:103C1000003F10D010E018980830002103F0D0FECB
:103C20008DF857000CE018982830022103F0B0FFFF
:103C30008DF8570004E003E001208DF85700FFE7FE
:103C40009DF8570068B9FFE744F25841C5F60201F4
:103C5000086820F44030189AD2F8A4201043086075
:103C600004E09DF857008DF85600FFE7FFE718982D
:103C70008078400700283FD5FFE71898D0F88800E3
:103C80000290B0F5801F0AD0FFE70298B0F5001F40
:103C90000ED0FFE70298B0F5401F11D011E044F2BA
:103CA0002C41C5F60201086840F4003008600CE0C1
:103CB00018982830012103F06BFF8DF8570004E0BD
:103CC00003E001208DF85700FFE79DF8570068B921
:103CD000FFE744F25441C5F60201086820F44010A1
:103CE000189AD2F888201043086004E09DF8570025
:103CF0008DF85600FFE7FFE718988078C007A8B353
:103D0000FFE71898006D019028B1FFE70198B0F522
:103D1000803F09D010E044F22C41C5F6020108684A
:103D200040F4003008600BE018980830022103F0DE
:103D300047FE8DF8570003E001208DF85700FFE79C
:103D40009DF8570060B9FFE744F24C41C5F6020107
:103D5000086820F48030189A126D1043086004E05F
:103D60009DF857008DF85600FFE7FFE71898C078D8
:103D7000800600280CD5FFE718982830022103F0B0
:103D800007FF20B1FFE701208DF85600FFE7FFE7AE
:103D900018988078800700283CD5FFE71898D0F85D
:103DA00080000090D0B1FFE70098B0F5807F0AD086
:103DB000FFE70098B0F5007F0ED0FFE70098B0F560
:103DC000407F0AD00BE044F22C41C5F6020108689E
:103DD00040F40030086006E005E004E003E0012064
:103DE0008DF85700FFE79DF8570068B9FFE744F2E8
:103DF0005441C5F60201086820F44070189AD2F8C0
:103E000080201043086004E09DF857008DF85600AC
:103E1000FFE7FFE718988078C00600280CD5FFE779
:103E200044F25041C5F60201086820F00040189A9B
:103E3000526F10430860FFE71898C078C00600284A
:103E40000DD5FFE744F21041C5F60201086820F4E1
:103E50008040189AD2F8B82010430860FFE71898FD
:103E60008078800600280CD5FFE744F25041C5F663
:103E70000201086820F08070189AD26E1043086022
:103E8000FFE71898C0784006002811D5FFE7FFE744
:103E900044F21041C5F60201086820F400400860B1
:103EA0001898D0F8BC20086810430860FFE7FFE7C7
:103EB0001898C078000600280CD5FFE744F24C4162
:103EC000C5F60201086820F04050189A526D104360
:103ED0000860FFE718988078000600280DD5FFE7F6
:103EE00044F25441C5F60201086820F44000189AD3
:103EF000D2F88C2010430860FFE718980079C007BB
:103F000090B1FFE718980830002103F059FD8DF8B3
:103F100057009DF8570008B9FFE704E09DF85700E7
:103F20008DF85600FFE7FFE7189800798007002812
:103F300012D5FFE718980830012103F041FD8DF8F4
:103F400057009DF8570008B9FFE704E09DF85700B7
:103F50008DF85600FFE7FFE7189800794007002822
:103F600012D5FFE718980830022103F029FD8DF8DB
:103F700057009DF8570008B9FFE704E09DF8570087
:103F80008DF85600FFE7FFE7189800790007002832
:103F900012D5FFE718982830002103F0F9FD8DF8BD
:103FA00057009DF8570008B9FFE704E09DF8570057
:103FB0008DF85600FFE7FFE718980079C006002843
:103FC00012D5FFE718982830012103F0E1FD8DF8A4
:103FD00057009DF8570008B9FFE704E09DF8570027
:103FE0008DF85600FFE7FFE7189800798006002853
:103FF00012D5FFE718982830022103F0C9FD8DF88B
:1040000057009DF8570008B9FFE704E09DF85700F6
:104010008DF85600FFE7FFE79DF8560020B9FFE74F
:1040200000208DF8670003E001208DF86700FFE7AE
:104030009DF867001AB080BD80B586B004900391EA
:10404000049820B9FFE701208DF817003CE203989F
:1040500042F20001C5F20021096801F00F01884217
:1040600016D9FFE742F20000C5F20020016821F0F6
:104070000F01039A11430160006800F00F000399DB
:10408000884204D0FFE701208DF817001CE2FFE70B
:10409000049800784007002819D5FFE704980069C4
:1040A00044F21841C5F60201096801F07001884226
:1040B0000CD9FFE744F21841C5F60201086820F068
:1040C0007000049A126910430860FFE7FFE7049844
:1040D00000780007002819D5FFE70498406944F2EA
:1040E0001C41C5F60201096801F0700188420CD933
:1040F000FFE744F21C41C5F60201086820F0700099
:10410000049A526910430860FFE7FFE704980078BB
:10411000C006002819D5FFE70498806944F21C41C5
:10412000C5F60201096801F4E06188420CD9FFE795
:1041300044F21C41C5F60201086820F4E060049ACC
:10414000926910430860FFE7FFE704980078800653
:10415000002819D5FFE70498C06944F22041C5F64C
:104160000201096801F0700188420CD9FFE744F2AE
:104170002041C5F60201086820F07000049AD26957
:1041800010430860FFE7FFE70498007880070028E5
:1041900019D5FFE70498C06844F21841C5F602013A
:1041A000096801F00F0188420CD9FFE744F2184179
:1041B000C5F60201086820F00F00049AD268104387
:1041C0000860FFE7FFE704980078C007002800F0C8
:1041D0008C80FFE744F21841C5F60201086820F41C
:1041E0007060049A9268104308600498406802283E
:1041F00011D1FFE744F20040C5F60200006800F468
:1042000000310020B0EB514F04D1FFE701208DF8C1
:10421000170059E13EE004984068032811D1FFE7F8
:1042200044F20040C5F60200006800F00071002072
:10423000B0EB516F04D1FFE701208DF8170043E187
:1042400027E004984068012811D1FFE744F20040BC
:10425000C5F60200006800F480710020B0EB112F59
:1042600004D1FFE701208DF817002DE110E044F2A2
:104270000040C5F60200006800F004010020B0EB29
:10428000910F04D1FFE701208DF817001CE1FFE733
:10429000FFE7FFE744F21041C5F60201086820F08D
:1042A0000700049A526810430860FDF7A1FD0190D1
:1042B000FFE744F21040C5F60200006800F0380045
:1042C00004994968B0EBC10F0ED0FFE7FDF790FDF0
:1042D0000199401A41F28931884204D3FFE7032053
:1042E0008DF81700F0E0E4E7FFE704980078800716
:1042F000002819D5FFE70498C06844F21841C5F6B4
:104300000201096801F00F0188420CD2FFE744F274
:104310001841C5F60201086820F00F00049AD2681F
:1043200010430860FFE7FFE7039842F20001C5F27F
:104330000021096801F00F01884216D2FFE742F21E
:104340000000C5F20020016821F00F01039A11431B
:104350000160006800F00F000399884204D0FFE775
:1043600001208DF81700AFE0FFE7049800784007C0
:10437000002819D5FFE70498006944F21841C5F6F2
:104380000201096801F0700188420CD2FFE744F293
:104390001841C5F60201086820F07000049A1269FD
:1043A00010430860FFE7FFE7049800780007002843
:1043B00019D5FFE70498406944F21C41C5F6020193
:1043C000096801F0700188420CD2FFE744F21C41F9
:1043D000C5F60201086820F07000049A5269104383
:1043E0000860FFE7FFE704980078C006002819D5A9
:1043F000FFE70498806944F21C41C5F60201096890
:1044000001F4E06188420CD2FFE744F21C41C5F69A
:104410000201086820F4E060049A92691043086081
:10442000FFE7FFE7049800788006002819D5FFE72A
:104430000498C06944F22041C5F60201096801F000
:10444000700188420CD2FFE744F22041C5F6020118
:10445000086820F07000049AD26910430860FFE7F2
:10446000FFE700F089F844F21842C5F6020211682D
:10447000C1F303234BF64411C0F60001CB5C03F0FB
:104480001F03D84000900098126802F00F02895C68
:1044900001F01F01C84040F20401C2F2004108606F
:1044A000009840F20001C2F20041086040F20C00A6
:1044B000C2F200400068FEF7D3F98DF80B009DF8BA
:1044C0000B008DF81700FFE79DF8170006B080BDC0
:1044D00080B582B000F050F844F21842C5F60202EE
:1044E0001168C1F303234BF64411C0F60001CB5C05
:1044F00003F01F03D84001900198126802F00F02E8
:10450000895C01F01F0120FA01F140F20400C2F2BF
:1045100000400160019940F20002C2F200421160C5
:10452000006802B080BD000080B5FFF7D1FF44F203
:104530001C41C5F602010968C1F302124BF6441191
:10454000C0F60001895C01F01F01C84080BD000079
:1045500080B5FFF7BDFF44F21C41C5F602010968B2
:10456000C1F302224BF64411C0F60001895C01F050
:104570001F01C84080BD00008AB044F21040C5F65B
:104580000200006800F0380001460191182800F28E
:1045900069810199DFE811F0190066016601660181
:1045A00066016601660166013A0066016601660100
:1045B00066016601660166014000660166016601EA
:1045C0006601660166016601460044F20040C5F6D8
:1045D0000200006800F020010020B0EB511F0ED057
:1045E000FFE744F20040C5F602000068C0F3C101D5
:1045F00049F20000C0F2D030C840029005E049F214
:104600000000C0F2D0300290FFE731E140F6001028
:10461000C0F23D0002902BE147F64000C0F27D1051
:10462000029025E144F22840C5F60200016801F03D
:10463000030108910068C0F30510079044F22C4074
:10464000C5F60200006800F001000690069844F2EA
:104650003441C5F60201096889B2C908484300EE31
:10466000100AB8EE400A8DED040A0798002800F001
:10467000F580FFE70898009048B1FFE7009801280F
:1046800069D0FFE70098022800F08980ABE044F28F
:104690000040C5F60200006800F020010020B0EBE9
:1046A000511F33D0FFE744F20040C5F60200006816
:1046B000C0F3C10149F20000C0F2D030C8400590FB
:1046C0009DED050AB8EE400A9DED071AB8EE411AB5
:1046D00080EE010A44F23040C5F6020000686FF334
:1046E0005F2001EE100AB8EE411A9DED042A9FEDFD
:1046F000633A82EE032A31EE021AB7EE002A31EE57
:10470000021A20EE010A8DED030A23E09DED070A4F
:10471000B8EE401A9FED5B0A80EE010A44F2304089
:10472000C5F6020000686FF35F2001EE100AB8EED4
:10473000411A9DED042A9FED513A82EE032A31EE93
:10474000021AB7EE002A31EE021A20EE010A8DEDB0
:10475000030AFFE76BE09DED070AB8EE401A9FEDF4
:10476000480A80EE010A44F23040C5F602000068B3
:104770006FF35F2001EE100AB8EE411A9DED042A96
:104780009FED3E3A82EE032A31EE021AB7EE002A7E
:1047900031EE021A20EE010A8DED030A47E09DED8D
:1047A000070AB8EE401A9FED340A80EE010A44F27F
:1047B0003040C5F6020000686FF35F2001EE100A7A
:1047C000B8EE411A9DED042A9FED2C3A82EE032AA1
:1047D00031EE021AB7EE002A31EE021A20EE010A7B
:1047E0008DED030A23E09DED070AB8EE401A9FED18
:1047F000240A80EE010A44F23040C5F60200006847
:104800006FF35F2001EE100AB8EE411A9DED042A05
:104810009FED1A3A82EE032A31EE021AB7EE002A11
:1048200031EE021A20EE010A8DED030AFFE744F291
:104830003040C5F60200006881B2012000EB512033
:1048400009909DED030A9DED091AB8EE411A80EE1C
:10485000010ABCEEC00A8DED020A02E000200290BF
:10486000FFE705E040F60010C0F23D000290FFE7D0
:1048700002980AB0704700BF20BCBE4B0000004643
:104880000024744A0024744C80B58CB00A900A98B5
:1048900028B9FFE701208DF82F0000F09DBD0A9890
:1048A0000078C007002800F0B980FFE744F210400C
:1048B000C5F60200006800F03800069044F2284077
:1048C000C5F6020000680590069810280AD0FFE798
:1048D000069818281CD1FFE7059800F0030002286D
:1048E00016D1FFE744F20040C5F60200006800F46C
:1048F00000310020B0EB514F09D0FFE70A98406823
:1049000028B9FFE701208DF82F0000F065BD84E095
:10491000FFE70A984068B0F5803F09D1FFE744F20D
:104920000041C5F60201086840F48030086032E0BA
:104930000A98406868B9FFE744F20041C5F60201F1
:10494000086820F480300860086820F4802008603F
:1049500020E00A984068B0F5A02F0DD1FFE744F29F
:104960000041C5F60201086840F48020086008682C
:1049700040F4803008600CE044F20041C5F60201CA
:10498000086820F480300860086820F480200860FF
:10499000FFE7FFE7FFE7FFE70A984068F0B1FFE7AE
:1049A000FDF726FA0990FFE744F20040C5F6020041
:1049B000006800F400310020B0EB514F0DD1FFE74B
:1049C000FDF716FA0999401A652805D3FFE7032079
:1049D0008DF82F0000F000BDE6E71DE0FDF708FAB6
:1049E0000990FFE744F20040C5F60200006800F4B9
:1049F00000310020B0EB514F0DD0FFE7FDF7F8F983
:104A00000999401A652805D3FFE703208DF82F0088
:104A100000F0E2BCE6E7FFE7FFE7FFE70A9800786F
:104A20008007002840F11681FFE744F21040C5F6E8
:104A30000200006800F03800049044F22840C5F6F7
:104A4000020000680390049850B1FFE7049818280A
:104A500078D1FFE79DF80C008007002872D1FFE7AE
:104A600044F20040C5F60200006800F00401002096
:104A7000B0EB910F09D0FFE70A98C06828B9FFE7AB
:104A800001208DF82F0000F0A7BC44F20041C5F6CC
:104A90000201086820F019000A9AD26810430860E1
:104AA000FDF7A6F90990FFE744F20040C5F60200C1
:104AB000006800F004010020B0EB910F0DD1FFE77A
:104AC000FDF796F90999401A032805D3FFE703205B
:104AD0008DF82F0000F080BCE6E7FFE7FDF780F9D6
:104AE00041F2030188421DD8FFE70A980069402877
:104AF0000AD1FFE744F20441C5F60201086820220A
:104B000062F3113008600CE044F20441C5F6020182
:104B1000086820F47C300A9A126940EA0230086082
:104B2000FFE70CE044F20441C5F60201086820F0FA
:104B3000FE400A9A126940EA02600860FFE7FFE758
:104B4000FFE786E00A98C06800285CD0FFE744F2DF
:104B50000041C5F60201086820F019000A9AD268DF
:104B600010430860FDF744F90990FFE744F2004064
:104B7000C5F60200006800F004010020B0EB910FC0
:104B80000DD1FFE7FDF734F90999401A032805D341
:104B9000FFE703208DF82F0000F01EBCE6E7FFE7DB
:104BA000FDF71EF941F2030188421DD8FFE70A987C
:104BB000006940280AD1FFE744F20441C5F602012A
:104BC0000868202262F3113008600CE044F20441CE
:104BD000C5F60201086820F47C300A9A126940EA9E
:104BE00002300860FFE70CE044F20441C5F6020120
:104BF000086820F0FE400A9A126940EA02600860E4
:104C0000FFE7FFE724E044F20041C5F6020108682F
:104C100020F001000860FDF7EBF80990FFE744F28F
:104C20000040C5F60200006800F004010020B0EB6F
:104C3000910F0CD0FFE7FDF7DBF80999401A032824
:104C400004D3FFE703208DF82F00C5E3E7E7FFE774
:104C5000FFE7FFE70A980078C006002840F1EB80E4
:104C6000FFE744F21040C5F60200006800F038008B
:104C7000029044F22840C5F60200006801900298B4
:104C800008280AD0FFE70298182850D1FFE70198BA
:104C900000F0030001284AD1FFE744F20040C5F6C6
:104CA0000200006800F480710020B0EB112F09D0E1
:104CB000FFE70A98C069802804D0FFE701208DF83B
:104CC0002F0089E3FFE7FDF78BF841F203018842EB
:104CD0001DD8FFE70A98006A20280AD1FFE744F2AE
:104CE0000441C5F602010868102262F39E60086064
:104CF0000CE044F20441C5F60201086820F0F840D7
:104D00000A9A126A40EA82600860FFE70CE044F207
:104D10000C41C5F60201086820F07C500A9A126A1C
:104D200040EA02600860FFE7FFE7FFE782E00A98D9
:104D3000C069002858D0FFE744F20041C5F60201DF
:104D4000086840F080000860FDF752F80990FFE71E
:104D500044F20040C5F60200006800F480710020B3
:104D6000B0EB112F0CD1FFE7FDF742F80999401A7B
:104D7000032804D3FFE703208DF82F002CE3E7E797
:104D8000FFE7FDF72DF841F2030188421DD8FFE748
:104D90000A98006A20280AD1FFE744F20441C5F6C8
:104DA00002010868102262F39E6008600CE044F281
:104DB0000441C5F60201086820F0F8400A9A126A18
:104DC00040EA82600860FFE70CE044F20C41C5F65F
:104DD0000201086820F07C500A9A126A40EA0260D8
:104DE0000860FFE7FFE724E044F20041C5F6020156
:104DF000086820F080000860FCF7FAFF0990FFE7E0
:104E000044F20040C5F60200006800F48071002002
:104E1000B0EB112F0CD0FFE7FCF7EAFF0999401A1D
:104E2000032804D3FFE703208DF82F00D4E2E7E73F
:104E3000FFE7FFE7FFE70A980078000700284FD553
:104E4000FFE70A98406928B3FFE744F27441C5F6CA
:104E50000201086840F001000860FCF7C9FF0990F2
:104E6000FFE744F27440C5F60200006800F002015A
:104E70000020B0EB510F0CD1FFE7FCF7B9FF099907
:104E8000401A032804D3FFE703208DF82F00A3E284
:104E9000E7E724E044F27441C5F60201086820F017
:104EA00001000860FCF7A4FF0990FFE744F274409A
:104EB000C5F60200006800F002010020B0EB510FBF
:104EC0000CD0FFE7FCF794FF0999401A032804D39C
:104ED000FFE703208DF82F007EE2E7E7FFE7FFE71B
:104EE0000A980078800600284FD5FFE70A98806965
:104EF00028B3FFE744F20041C5F60201086840F418
:104F000080500860FCF774FF0990FFE744F200400E
:104F1000C5F60200006800F400510020B0EB513FDC
:104F20000CD1FFE7FCF764FF0999401A032804D36A
:104F3000FFE703208DF82F004EE2E7E724E044F27C
:104F40000041C5F60201086820F480500860FCF7B3
:104F50004FFF0990FFE744F20040C5F602000068E9
:104F600000F400510020B0EB513F0CD0FFE7FCF7FC
:104F70003FFF0999401A032804D3FFE703208DF867
:104F80002F0029E2E7E7FFE7FFE70A9800784007EC
:104F9000002840F1A780FFE744F60001C5F60201B2
:104FA000086840F480700860FCF722FF0990FFE772
:104FB00044F60000C5F602000068C00500280CD4C5
:104FC000FFE7FCF715FF0999401A652804D3FFE7AE
:104FD00003208DF82F00FFE1EAE7FFE70A988068D9
:104FE000012809D1FFE744F27041C5F602010868C3
:104FF00040F00100086031E00A98806868B9FFE776
:1050000044F27041C5F60201086820F00100086012
:10501000086820F0040008601FE00A9880680528EE
:105020000DD1FFE744F27041C5F60201086840F077
:1050300004000860086840F0010008600CE044F2D9
:105040007041C5F60201086820F001000860086898
:1050500020F004000860FFE7FFE7FFE7FFE70A989A
:105060008068F8B1FFE7FCF7C3FE0990FFE744F260
:105070007040C5F60200006800F002010020B0EBAD
:10508000510F0ED1FFE7FCF7B3FE0999401A41F228
:105090008931884204D3FFE703208DF82F009BE17C
:1050A000E5E71EE0FCF7A4FE0990FFE744F270403C
:1050B000C5F60200006800F002010020B0EB510FBD
:1050C0000ED0FFE7FCF794FE0999401A41F28931AE
:1050D000884204D3FFE703208DF82F007CE1E5E749
:1050E000FFE7FFE70A98406A002800F07181FFE7B8
:1050F00044F21040C5F60200006800F0380018289D
:1051000000F0E080FFE70A98406A022840F0B4808F
:10511000FFE744F20041C5F60201086820F0807004
:105120000860FCF765FE0990FFE744F20040C5F611
:105130000200006800F000710020B0EB516F0CD04D
:10514000FFE7FCF755FE0999401A032804D3FFE74F
:1051500003208DF82F003FE1E7E7FFE744F2284105
:10516000C5F60201086840F2F33290430A9B9A6A3E
:10517000DB6A42EA0312104308600A99086BD1F80F
:1051800034C08B6BCA6B01386FF35F204FF6006140
:10519000CFF6FF7101EB4C2189B208440021CFF614
:1051A000FF7101EB034101F4FE0108444FF07F4120
:1051B00001EB026101F0FE41084444F23041C5F6C2
:1051C00002010860FFE744F22C41C5F6020100919C
:1051D000086820F00100086044F23442C5F602027B
:1051E00010684FF6F87398430A9B9B6C40EAC30023
:1051F0001060086820F00C000A9A126C10430860D6
:10520000086820F002000A9A526C1043086008688F
:1052100040F480300860086840F400300860086896
:1052200040F480200860086840F00100086044F203
:105230000041C5F60201086840F080700860FCF784
:10524000D7FD0990FFE744F20040C5F60200006870
:1052500000F000710020B0EB516F0CD1FFE7FCF7BC
:10526000C7FD0999401A032804D3FFE703208DF8EE
:105270002F00B1E0E7E724E044F20041C5F6020167
:10528000086820F080700860FCF7B2FD0990FFE725
:1052900044F20040C5F60200006800F000710020F2
:1052A000B0EB516F0CD0FFE7FCF7A2FD0999401A53
:1052B000032804D3FFE703208DF82F008CE0E7E7F5
:1052C000FFE784E044F22840C5F602000068089039
:1052D00044F23040C5F60200006807900A98406A20
:1052E000012837D0FFE7089800F003000A99896A7F
:1052F00088422FD1FFE7089800F47C710A98C06AB1
:10530000B0EB111F26D1FFE707986FF35F200A99D2
:10531000096B013988421DD1FFE7BDF81C100A98BE
:10532000406B0138B0EB512F14D1FFE7079800F420
:10533000FE010A98806B0138B0EB114F0AD1FFE7EC
:10534000079800F0FE410A98C06B0138B0EB116F6E
:1053500004D0FFE701208DF82F003DE044F23440F7
:10536000C5F60200006880B2C00808900A98806CF8
:105370000899884229D0FFE744F22C41C5F6020182
:10538000086820F001000860FCF732FD0990FFE793
:10539000FCF72EFD0999401A08B9FFE7F8E744F237
:1053A0003441C5F6020108684FF6F87290430A9A34
:1053B000926C40EAC200086044F22C41C5F602013A
:1053C000086840F001000860FFE7FFE7FFE7FFE73C
:1053D00000208DF82F00FFE79DF82F000CB080BD56
:1053E00080B582B00190019802F0BEFC02B080BD91
:1053F00081B0009001B0704781B0009001B070475B
:1054000081B0009001B0704785B003900291FFE732
:10541000039890F83C00012804D1FFE702208DF8A2
:10542000130099E00399012081F83C00FFE7FFE7B2
:105430000399022081F83D000398006840680190BC
:105440000398006880680090039800680021C4F207
:105450000101884209D0FFE70398006840F200414B
:10546000C4F2010188420AD1FFE7019820F47000DC
:10547000019002984168019808430190FFE7019864
:1054800020F0700001900298016801980843019093
:105490000198039909684860039800680021C4F2E4
:1054A000010188423CD0FFE703980068B0F1804FCB
:1054B00036D0FFE70398006840F20041C4F20001D3
:1054C00088422DD0FFE70398006840F60001C4F23F
:1054D0000001884224D0FFE70398006840F60041AD
:1054E000C4F2000188421BD0FFE70398006840F235
:1054F0000041C4F20101884212D0FFE7039800681E
:1055000041F60001C4F20001884209D0FFE7039888
:10551000006844F20001C4F2010188420ED1FFE7A5
:10552000009820F08000009002988168009808435D
:1055300000900098039909688860FFE703990120AB
:1055400081F83D00FFE70399002081F83C00FFE768
:1055500000208DF81300FFE79DF8130005B0704799
:1055600080B582B00090009820B9FFE701208DF847
:10557000070045E0009890F83D0040B9FFE700992A
:10558000002081F83C00009800F03EF8FFE7009909
:10559000022081F83D00009951F8040B02F040FD13
:1055A0000099012081F84800FFE70099012081F867
:1055B0003E00009981F83F00009981F84000009971
:1055C00081F84100009981F84200009981F8430078
:1055D000FFE7FFE70099012081F84400009981F876
:1055E0004500009981F84600009981F84700FFE7DF
:1055F0000099012081F83D0000208DF80700FFE7A9
:105600009DF8070002B080BD80B584B00390039878
:10561000006840F60001C4F20001884210D1FFE7A3
:10562000FFE744F2E840C5F60200016841F00401DA
:105630000160006800F0040002900298FFE722E099
:105640000398006840F60041C4F20001884219D175
:10565000FFE7FFE744F2E840C5F60200016841F0C9
:1056600008010160006800F0080001900198FFE760
:105670003220009000221146FDF756F90098FDF700
:1056800047F9FFE7FFE704B080BD0000000000001D
:1056900083B00190019890F83D00012804D0FFE705
:1056A00001208DF80B0071E00199022081F83D0086
:1056B00001980168C86840F00100C860019800685E
:1056C0000021C4F2010188423CD0FFE70198006844
:1056D000B0F1804F36D0FFE70198006840F20041FA
:1056E000C4F2000188422DD0FFE70198006840F61F
:1056F0000001C4F20001884224D0FFE7019800684D
:1057000040F60041C4F2000188421BD0FFE7019837
:10571000006840F20041C4F20101884212D0FFE764
:105720000198006841F60001C4F20001884209D0E6
:10573000FFE70198006844F20001C4F201018842C9
:1057400019D1FFE70198006880680721C0F20101C4
:1057500008400090009806280CD0FFE70098B0F5AC
:10576000803F07D0FFE701980168086840F001001A
:105770000860FFE706E001980168086840F0010052
:105780000860FFE700208DF80B00FFE79DF80B0095
:1057900003B070470000000080B586B0049003910C
:1057A00000208DF80B00FFE7049890F83C000128DA
:1057B00004D1FFE702208DF81700D1E00499012001
:1057C00081F83C00FFE7FFE70499022081F83D00E3
:1057D000049800688068019001984FF68871CFF6B0
:1057E000CE7108400190019820F47F40019001980B
:1057F000049909688860039800680090002800F008
:105800009580FFE70098102800F09080FFE700984F
:10581000202800F08B80FFE70098302800F0868079
:10582000FFE70098402874D0FFE70098502856D032
:10583000FFE7009860285FD0FFE7009870282AD023
:10584000FFE70098B0F5805F24D0FFE70098B0F53F
:10585000005F35D0FFE70098B0F5801F66D0FFE706
:105860000098B0F1101F61D0FFE700982021C0F22E
:10587000100188425AD0FFE700983021C0F2100191
:10588000884253D0FFE700984021C0F210018842BF
:105890004CD052E055E004980068039B5A68996820
:1058A000DB6802F0A9FC0498006880680190019808
:1058B00040F077000190019804990968886040E001
:1058C00004980068039B5A689968DB6802F094FCAE
:1058D00004980168886840F48040886031E004984A
:1058E0000068039A5168D26803F016F804980068BB
:1058F000502102F09DFC24E004980068039A51684E
:10590000D26803F031F804980068602102F090FC3E
:1059100017E004980068039A5168D26802F0FCFF0F
:1059200004980068402102F083FC0AE004980068B3
:105930000399096802F07CFC03E001208DF80B005C
:10594000FFE70499012081F83D00FFE7049900205A
:1059500081F83C00FFE79DF80B008DF81700FFE78A
:105960009DF8170006B080BD80B586B00490039105
:10597000049820B9FFE701208DF817008AE0049809
:1059800090F83D0040B9FFE70499002081F83C0001
:10599000049800F085F8FFE70499022081F83D00A3
:1059A0000498016888684BF6F872CFF6FE721040D2
:1059B0008860049951F8040B02F032FB04980068E7
:1059C00080680290049800688069019004980068DB
:1059D000006A0090039801680298084302900198B9
:1059E00040F203318843019003998868896940EA4D
:1059F0000121019808430190019840F60C41884329
:105A0000019001984FF2F001884301900399C86812
:105A1000C96940EA01210198084301900399086986
:105A2000096A000140EA0131019808430190009899
:105A300020F022000090009820F088000090039948
:105A40004868496940EA01110098084300900298AB
:105A50000499096888600198049909688861009828
:105A60000499096808620499012081F848000499A2
:105A700081F83E00049981F83F00049981F84400C0
:105A8000049981F84500049981F83D0000208DF8C3
:105A90001700FFE79DF8170006B080BD000000006A
:105AA00080B58CB00B9000200A9009900890079068
:105AB00006900B9800680021C4F20101884230D1A1
:105AC000FFE7FFE744F2F040C5F60200016841F04D
:105AD00001010160006800F0010005900598FFE7F2
