:020000040800F2
:10000000800B0024ED03000879560008E14C00083D
:1000100071560008B11800080166000800000000D1
:10002000000000000000000000000000D958000897
:10003000B91800080000000081560008E1580008C7
:100040000704000807040008070400080704000864
:100050000704000807040008070400080704000854
:100060000704000807040008070400080704000844
:100070000704000807040008070400080704000834
:100080000704000807040008070400080704000824
:100090000704000807040008070400080704000814
:1000A0000704000807040008070400080704000804
:1000B00007040008070400080704000807040008F4
:1000C00007040008070400080704000807040008E4
:1000D00007040008070400080704000807040008D4
:1000E00007040008070400080000000007040008D7
:1000F00007040008070400080704000807040008B4
:100100000704000807040008995A000807040008BB
:100110000704000807040008070400080704000893
:100120000704000807040008070400080704000883
:100130000704000807040008070400080704000873
:1001400000000000000000000000000000000000AF
:100150000704000807040008070400080704000853
:100160000704000807040008070400080704000843
:100170000704000807040008070400080704000833
:100180000704000807040008070400080704000823
:100190000704000807040008070400080704000813
:1001A0000704000807040008070400080704000803
:1001B00007040008070400080704000807040008F3
:1001C00007040008070400080704000807040008E3
:1001D00007040008070400080704000807040008D3
:1001E00007040008070400080704000807040008C3
:1001F00007040008070400080704000807040008B3
:1002000007040008070400080704000807040008A2
:100210000704000807040008070400080704000892
:100220000704000807040008070400080000000095
:100230000704000807040008000000000704000885
:100240000704000807040008070400080704000862
:100250000704000807040008070400080704000852
:100260000704000807040008070400080704000842
:100270000704000807040008070400080000000045
:100280000704000807040008070400080000000035
:10029000000000000704000800F002F800F096F8E3
:1002A0000AA090E8000C82448344AAF10107DA45D1
:1002B00001D100F08BF8AFF2090EBAE80F0013F08D
:1002C000010F18BFFB1A43F001031847A477000081
:1002D000C4770000103A24BF78C878C1FAD8520712
:1002E00024BF30C830C144BF04680C6070470000B0
:1002F0000023002400250026103A28BF78C1FBD82F
:10030000520728BF30C148BF0B6070476E2900F00C
:100310009582702900F0D983662907F00483652946
:1003200007F00183672907F0FE82612907F0FD824B
:1003300003681B0A28BF41F08001692900F042824E
:10034000642900F03F82752900F03C826F2900F09B
:100350006783782900F0A583E92900F00183E42967
:1003600000F0FE82F52900F0FB82EF2900F06483A3
:10037000F82900F0A4830368DB0928BF41F080015D
:10038000632901F0C380732901F0C880E32901F0DB
:10039000D380F32901F0D880002070471FB507F003
:1003A000B5FA9DE8030000F04DF901F02BF90400C7
:1003B0000020002107F094FA401C6060002000211A
:1003C00007F078FAE0601FBD10B510BD01F0ECF841
:1003D0001146FFF7E3FF06F043F901F0C9F903B452
:1003E000FFF7F2FF03BC01F0F9F90000094880476C
:1003F00009480047FEE7FEE7FEE7FEE7FEE7FEE707
:10040000FEE7FEE7FEE7FEE704480549054A064B1E
:1004100070470000C95900089902000880050024AF
:10042000800B0024800700248007002470B5064656
:1004300000F0ECF8056806F10B0020F00704B44268
:100440009CBF002070BD2B466A68BAB11068A042FC
:1004500010D304F1080188423CBF5068586007D3AC
:100460005168101941601168091B016058601460DF
:10047000101D70BD13465268002AE7D12146284658
:1004800000F0CCF80028DED170BD53EA020C00F079
:1004900069802DE9F04B4FF00006002B1FBFB3FA27
:1004A00083F503FA05F424FA05F65E4012BF1643FD
:1004B000B2FA82F502FA05F4C5F120051EBF22FA50
:1004C00005FC44EA0C04203556EA044C4FEA144477
:1004D00018BF641C4FF000084FF00009904271EB08
:1004E000030C39D3002919BFB1FA81F701FA07F6D5
:1004F000B0FA80F700FA07F6C7F120071EBF20FA0E
:1005000007FC46EA0C062037B6FBF4FCA7EB050710
:10051000103F07F01F0BCBF120062CFA06F60CFA61
:100520000BFB44BFB3460026202FA4BF5E464FF00E
:10053000000B5BEA060C08BF4FF0010B19EB0B092F
:1005400048EB0608ABFB027C06FB02CC0BFB03CCA2
:10055000C01B71EB0C01C1E70B4602464146484601
:10056000BDE8F08B13B5084318BF4FF0FF300146CC
:10057000AFF30080BDE81C40704700007CB51D460D
:1005800016460C00009007D04142A14202D32044FD
:10059000401E01E04FF0FF30064B7B442A4669467F
:1005A0000190304600F063F9002C02D0009A00213F
:1005B00011707CBDF70200004FF0000200B5134639
:1005C00094469646203922BFA0E80C50A0E80C5073
:1005D000B1F12001BFF4F7AF090728BFA0E80C5024
:1005E00048BF0CC05DF804EB890028BF40F8042B1D
:1005F00008BF704748BF20F8022B11F0804F18BF8A
:1006000000F8012B704770477047704700487047EB
:1006100018000024704770477047704738B504468B
:100620000A4600206946AFF30080002808BF38BDA5
:1006300002460099204600F01BFB012038BD012036
:1006400000F0AABFF8B5AFF30080054600200C46C5
:10065000102000BF0646A819A0420DD932466946AF
:100660000020AFF30080070008BF00F095FF00985E
:10067000A04218BF0546C419FFF7C8FF056007462A
:10068000F01D20F007004619284600F00AF8B44291
:1006900008BFF8BDA21B31463868BDE8F84000F03D
:1006A000E7BA00210160C0E90110704710207047CF
:1006B00070B50446051FFFF7A9FF0068002C14BFA2
:1006C000446870BD002C18BFAC423CBF2046646833
:1006D000F8D301680A18AA4218BF456003D12A68F6
:1006E00005461144016028684119A1421CBF6C6095
:1006F00070BD6168696021680844286070BD70B58C
:10070000044685690068C10601D5302600E0202630
:10071000C00707D070BDD4E9012130469047206A58
:10072000401C20626D1EF6D570BD70B5044685690B
:100730000078C00707D170BDD4E90121202090477F
:10074000206A401C20626D1EF6D570BD09684A05FE
:1007500001D540B27047C905FCD500B270470968A1
:100760004A0501D5C0B27047C905FCD580B27047B3
:1007700070B50C460546012A05D02878800600D5BC
:10078000EA69002302E0012305E05B1C934202D2E8
:10079000E05C0028F9D1A869E618C01AA861286AA7
:1007A000184428622846FFF7AAFF04E0D5E9012192
:1007B00014F8010B9047B442F8D32846FFF7B5FF71
:1007C00070BD00002DE9F04106460024106875292F
:1007D000314616A510D0FFF7B9FF002802DA4042D3
:1007E00013A507E031688A0701D512A502E0490781
:1007F00004D511A5012401E0FFF7B1FF00210A2271
:1008000006F1240709E0B0FBF2FCB0FBF2F302FBB7
:100810001C00303078541846491C0028F3D1234678
:100820002A463046BDE8F04100F081BA00000000E1
:100830002D0000002B00000020000000116802685D
:10084000006A530501D508700AE0D30501D5088078
:1008500006E0130603D5C217C1E9000200E00860F4
:100860000120704701694A1C02610878704700B591
:100870008FB0CDE901310021059105497944CDE9D9
:1008800003101146684600F02BF90FB000BD0000C0
:10089000E5FFFFFFD1E900239A4202D2531C0B600F
:1008A000107070472DE9FF5F15468A460446DFF851
:1008B000AC80F8440027D8E900103E46CDE900108E
:1008C00010E03AF816106A4602A800F041FE411CFA
:1008D00007D02178890603D5E269391891420DD8ED
:1008E0000744761C2078800602D5E069B84205DD11
:1008F000AE42E6DB3AF816000028E2D1A069C01B40
:10090000A0612046FFF7FBFED8E90010CDE90010FA
:10091000002017E03AF818106A4602A800F018FE06
:10092000B0F1FF3F81460BD000250DF1080B05E02B
:10093000D4E901211BF8050090476D1C4D45F7D304
:1009400008F10100B0428046E4DB206A38442062AE
:100950002046FFF7EAFEBDE8FF9F00007A70000026
:100960002DE9F0418046D21D22F007020025D2E990
:100970000002F52915A614D0011E72F1000106DA55
:100980000023D0EB030063EB020211A608E0D8F8C5
:1009900000108B0701D50FA602E0490701D50EA66E
:1009A00001251146002408F1240704E000F07AF93B
:1009B00030323A55641C50EA0102F7D12B463246D8
:1009C00021464046BDE8F04100F0B1B9000000000A
:1009D0002D0000002B0000002000000030B400219A
:1009E00000F1240408E002F00705D208303542EA9D
:1009F0004372DB086554491C52EA0305F3D10468CD
:100A0000002310A2250708D504F020040C4304D0CD
:100A1000C46901230CA2641EC46130BC00F087B914
:100A200010B5044621461068FFF799FE024620469D
:100A3000BDE810400023D1E7D21D22F00701D1E923
:100A40000023CBE70000000030000000F0B40D46AA
:100A50000188090502D5214C7C4402E01F4C7C44EE
:100A60000E34002100F1240608E002F00F071209FD
:100A7000E75D42EA03721B097754491C52EA0307F7
:100A8000F3D102780023120704D5702D06D009B1E6
:100A9000022311342246F0BC00F049B9012310347E
:100AA000F8E770B504460D4621461068FFF757FE7B
:100AB000024629462046BDE870400023C6E7D21D05
:100AC00022F00703D3E90023C0E70368126843F06C
:100AD000200303600823C3610023B7E7DC6E000036
:100AE0002DE9F05F894604464FF0000ADFF874B143
:100AF000FB44C0F820A02046E1688847002874D055
:100B0000252806D0D4E901219047206A401C2062A4
:100B1000F1E700265F462046E16888472028054621
:100B200007DB312D05D2781910F8200C08B10643E7
:100B3000F1E7B00701D526F00406C4F81CA0002791
:100B4000C4F818A02A2D09D0284606F0ABFE38B309
:100B500004EB8708303DC8F8185019E059F8041B19
:100B6000204604EB87029161E1688847012F054622
:100B700018D1E069002820DA26F020061DE0D8F818
:100B8000180000EB800005EB40003038C8F8180072
:100B90002046E1688847054606F084FE0028EED12D
:100BA000012F0AD02E2D08D12046E16888477F1CEE
:100BB0000546022F46F02006C4DBA069002803DAB0
:100BC000404246F00106A061F00701D026F0100671
:100BD0006C2D0BD0682D09D04C2D39D06A2D35D015
:100BE000742D35D07A2D33D016E038E0E1682F46E9
:100BF00020468847B842054609D16C2F26D04FF4CD
:100C00008060E168064320468847054604E06C2F73
:100C10001AD04FF4807006430DB3A5F14100192896
:100C200002D8203546F400664A462946204626600A
:100C30004E46FFF76BFB80B101280BD0F61D26F066
:100C4000070000F1080956E74020E4E78020D8E7D4
:100C50000020D6E706F104094DE7284652E7206A4E
:100C6000BDE8F09F6C6E0000004870471000002443
:100C7000034640688C46002818BF88423CBF0346A4
:100C80004068F8D318681844884207D00CF1030074
:100C900020F00700001D411A521A0146081D0A6083
:100CA000FFF706BD30B5B0F10A0271F100034FEA5B
:100CB000900E4EEA817EB0EB0E0061EB91014FEA9F
:100CC000101E4EEA017E10EB0E0041EB11114FEAAF
:100CD000102E4EEA016E10EB0E0041EB11214FEA8F
:100CE000104E4EEA014E10EB0E0041EB1141401840
:100CF00041F100014FEAD00040EA41704FEAD101D2
:100D00004FEA810444EA907410EB800544EB01043F
:100D10006D1944EB0404521BA3414FF0000348BF7C
:100D20000A3200D530BD401C41F1000130BD2DE933
:100D3000F0470D4699469246044600F124080168A2
:100D4000880604D5E06921F01001216000E001204F
:100D5000A84201DD471B00E00027A1697A1902EBD8
:100D60000900081AA0612078C00602D42046FFF7C7
:100D7000C6FC002608E0D4E901211AF806009047D5
:100D8000206A401C761C20624E45F4DB2078C006A9
:100D90000AD52046FFF7B3FC06E0D4E90121302054
:100DA0009047206A401C2062381EA7F10107F4DC3E
:100DB00007E0D4E9012118F805009047206A401C9B
:100DC0002062281EA5F10105F3DC2046FFF7ADFCEB
:100DD0002078000602D50220BDE8F0870120FBE75D
:100DE0002DE9FF4F0C461E464FF0FF378BB0D2E97E
:100DF0000001DDF860800A908A46C1F30A5505B902
:100E00003D46002108464FF00000BAF1000F00F403
:100E1000400005DA00EB80004FF4400101EA500089
:100E20004FEA9059B9F1010F00DDB9460A9850EA2E
:100E30004A000ED044F61050A5F2FF3545432F145A
:100E4000B8F1000F1ED07542291E1EDDC9F1000247
:100E50001CE0B8F1010F4FF0000001D0302103E099
:100E6000F24305E02154401CB042FBDB3046002237
:100E7000002121540B99C1F80880C1E900200FB06E
:100E8000BDE8F08FBD1B6D1CDEE74A4600DA694203
:100E900006A800F0FBFB06AB93E8070003AB83E872
:100EA000070050460A9906F01DF98DE80700A0F5E5
:100EB00000501F3800900398002D0ADD42F21F01F8
:100EC0004A460844002303A90390684606F086FBBF
:100ED00009E0A0F500504A461F38002303A90390FB
:100EE000684606F090FB8DE807000004000C03D074
:100EF0004FF0FF30410800E01046B8F1000F03D07A
:100F00000022009215461EE0751E05D4FFF7CAFEAA
:100F1000303262556D1EF9D5B3460122084302D026
:100F200000227F1C04E02078302801D100227F1E9F
:100F3000002A099784D01DE0112D07DAFFF7B2FED1
:100F4000303262556D1C50EA0102F5D1084302D0DF
:100F50000098C8B10EE00021681E05E0235C625CC9
:100F600063542254401E491C8142F7DBAB46A81B48
:100F7000401E0990002004F80B000B98099AC0F855
:100F80000880C0E9002B7AE711264FF0000857E7E8
:100F90002DE9F04F88460446D21D22F0070191B09A
:100FA000D1E90001CDE90A0106F064FC02460B9884
:100FB000C00F01D02D2007E02068810701D52B202C
:100FC00002E0202101EAC000032A099001D0072A8B
:100FD00005DB03464146204600F018FB0BE1207874
:100FE000800601D5E06900E00620B8F1650F814672
:100FF00006D0B8F1660F18D0B8F1670F70D131E0A4
:101000000020B9F1110F009001DB112301E009F17B
:1010100001030AAA01A90CA8FFF7E2FEDDE90C70A2
:10102000002609F10105834647E001204B46009068
:101030004FF000470AAA01A90CA8FFF7D1FEDDE98D
:101040000DB00C995D46002610B909F101000D188C
:10105000B9EB050003D4C0F1FF3609F10105A5EB9A
:1010600009002BE0B9F1010F01DA4FF0010900206E
:10107000B9F1110F0090484601DD112300E003464D
:101080000AAA01A90CA8FFF7ABFEDDE90C704D46DA
:1010900000268346207800070AD4AB4500DA5D4677
:1010A00001A8012D04DD411911F8011C302907D0D8
:1010B0004F4502DA17F1040F04DA012082460FE0EF
:1010C0006D1EEEE7002F02DCED1B3E4403E0781CB2
:1010D000A84200DD7D1CB81B00F1010A4FF000475B
:1010E0002078000703D4AA4501DB4FF0FF3A002126
:1010F000B7F1004F0DF143088DF8431024D00220C2
:101100002B23002F01DA7F422D230A21021EA0F19A
:10111000010000DC5FB197FBF1FC97FBF1F201FBF2
:101120001C7C17460CF1300C08F801CDEEE7A8F155
:10113000010003702188090501D5452100E06521E2
:10114000A0F1010800F8011C09980FA9A1EB0807FC
:10115000FF1D00B10120411901EBEA70A16938447B
:10116000081A401EA0612078C00602D42046FFF76E
:10117000C6FA099828B1D4E901219047206A401C99
:1011800020622078C00622D52046FFF7B8FA1EE07C
:10119000002E04DBB34502DD01A8805D00E03020B5
:1011A000D4E901219047206A401C2062761CAAF1F4
:1011B00001005FEA000A0AD100F024FAC068016861
:1011C000405CD4E901219047206A401C2062281E1F
:1011D000A5F10105DCDC07E0D4E9012118F8010BD9
:1011E0009047206A401C2062381EA7F10107F3DCFB
:1011F0002046FFF79AFA032011B041E62DE9F04F9F
:1012000004460D46D21D22F0070089B0D0E90097B0
:101210004846394606F02EFB0246F80F01D02D2332
:1012200007E02068810701D52B2302E0202101EA95
:10123000C0038DF820300BB1012000E00020032A0C
:10124000824601D0072A04DB2946204600F0DEF959
:101250003FE12078800601D40D2500E0E569C7F361
:101260000A560D2D49DA00214FEA175B08464FF068
:101270000000002F00F4400007DA00EB80004FF47C
:10128000400100EBD07001EA60008115012901DD09
:101290004FF0FF3100224FEA850CBCF1180F06D346
:1012A0001346ACF118004FF08052C24003E04FF4F7
:1012B000801323FA0CF30CF10C0CBCF1200F04D3B7
:1012C000ACF1200C09FA0CF001E007FA0CF000294F
:1012D0004FF0004801DD18B90FE00ED140450CD3A6
:1012E00019EB02095F4121B9404502D19F4329EA28
:1012F0000209BBEB175F00D0761C2088000502D5E1
:101300007B48784402E07A487844193808AA3023A8
:1013100002F80A30037C0AF10101002E0AF1020AE8
:1013200053546A4602DC4FF0300101E04FF03101C6
:101330004FF001088DF8001002D0A6F2FF3603E04E
:1013400059EA470100D06B4E002D02DC21780907D5
:1013500004D54FF002082E218DF80110C44600215B
:101360000BE0C7F303433F01C35C491C6D1E02F849
:101370000830052908F1010801DA002DF1DC00210F
:101380000CE000EB1973491C1B786D1E082902F84C
:1013900008304FEA091908F1010801DA002DF0DCE4
:1013A00021688B0602D516E0A8F10108E04505DDAD
:1013B00002EB080313F8013C302BF5D0B8F1000F15
:1013C00009DD02EB080313F8013C2E2B03D10907BA
:1013D00001D4A8F10108002D05DD3E2102F8081016
:1013E0006D1E08F10108407C002E02F8080008F18B
:1013F000010804DA2D20764202F8080002E02B20D2
:1014000002F808000A214FF47A70864208F10108B8
:101410000BDB96FBF0F3303302F8083096FBF0F369
:1014200008F1010800FB136601E0642E0CDB642068
:1014300096FBF0F3303302F8083096FBF0F308F136
:10144000010800FB136601E00A2E06DB96FBF1F0B3
:10145000303002F8080008F1010896FBF1F001FBBA
:101460001060303002F80800A16908F1010808EBAB
:10147000050202EB0A00081AA0612078C00602D417
:101480002046FFF73CF9216A08AE01EB0A00206212
:1014900004E0D4E9012116F8010B9047BAF1010AE2
:1014A000F7D22078C00602D52046FFF728F96E460D
:1014B00009E016F8010B3E280FD0D4E9012190472E
:1014C000206A401C2062B8F10108F2D22046FFF7E2
:1014D0002CF909B00320BDE8F08F206A284420626F
:1014E00003E0D4E90121302090476D1EEBD3F8E7EB
:1014F0007E66000002FCFFFF10B5436913B1AFF335
:10150000008001E0FFF734F9012010BD127800F1EE
:1015100024010A7000224A700122EDE711684FF0A1
:10152000FF32E9E710B5436913B1AFF3008001E082
:10153000FFF7B8F9012010BD128800F12401828460
:101540000022C2840122EDE711684FF0FF32E9E783
:101550002DE9F04116460C46054600F04BF80368AD
:1015600093F80101012807D0FF2C12D8185D80B133
:1015700001202C70BDE8F081D3F8070132462146E6
:1015800003F20713C7182846BC46BDE8F041002304
:1015900060474FF0FF30EDE710B500F0F7F8BDE819
:1015A000104000F0EEB870477546FFF75DFBAE46A1
:1015B00005006946534620F00700854618B020B55F
:1015C000FEF722FFBDE820404FF000064FF0000775
:1015D0004FF000084FF0000BAC46ACE8C009ACE897
:1015E000C009ACE8C009ACE8C00921F007018D468C
:1015F0007047000010B500F005F8001D10BD00BFD9
:10160000E162000000487047300000242DE9F041FD
:101610001F46044603260168072A01F4006004DB24
:1016200008B116A505E016A503E008B115A500E070
:1016300015A521F010002060A069C01EA0610FB1A7
:10164000401EA0612046FFF75AF84FB1D4E90121AE
:1016500038469047206A401C2062C01C206206E089
:10166000206AFAE7D4E9012115F8010B9047761EAC
:10167000F8D22046FFF759F8BDE8F0814E414E0000
:101680006E616E00494E4600696E66002DE9F047B6
:10169000814616468AB0354878440DC88DE80D005D
:1016A00032487844801C03AC0DC884E80D0041F634
:1016B0009B300844372190FBF1F290FBF1F5A5F146
:1016C000800501FB12041B3C02D56442012000E0AE
:1016D0000020DFF898A080460027FA44AAF1BE0A4D
:1016E0000EE0E0070AD03246684607EB47010123C7
:1016F0000AEB810105F087FF8DE8070064107F1C6D
:10170000002CEED1194F7F44AE3F19E0E80715D009
:1017100007EB04100DF1180A90E80E008AE80E009D
:10172000C068F04201D1981908903246012306A9F9
:1017300003A805F068FF03AB83E807006D10641C85
:10174000002DE3D14FF0010332466946B8F1000F96
:1017500003A802D005F042FF01E005F054FFC9E9FB
:101760000001C9F808200AB0BDE8F08778630000DE
:1017700010B50446AFF300802046BDE81040FEF7E8
:101780002EBE002801D000F029B8704710B50128FE
:1017900005D0002103A000F027F8012010BD09A109
:1017A000F8E7000053494752544D454D3A204F75D4
:1017B00074206F662068656170206D656D6F727949
:1017C000000000003A2048656170206D656D6F7201
:1017D0007920636F72727570746564000149182016
:1017E000ABBEFEE72600020070B505460C460A2097
:1017F00000E06D1C00F052F835B128780028F8D1CF
:1018000002E0641C00F04AF814B120780028F8D1F6
:10181000BDE870400A2000F041B800000000000060
:1018200030B44FF0013C50F8042BCCFA52F451F88C
:10183000043BD51A20D1FCB950F8042BCCFA52F451
:1018400051F8043BD51A17D1B4B950F8042BCCFA8F
:1018500052F451F8043BD51A0ED16CB950F8042B50
:10186000CCFA52F451F8043BD51A05D1002CDAD049
:1018700030BC4FF00000704729BAB1FA81F111F085
:101880001801D1F120008440F2D1CA40CB4012F0BF
:10189000FF0213F0FF0330BCD01A704708B5694649
:1018A0008DF800000320ABBE08BD00000000000062
:1018B000FEE700000000000070470000000000008C
:1018C000EFF3108072B600BFFEE7000000000000DA
:1018D000B0B584B0044602200DF10E010A22CDE914
:1018E000001040F29C00A121C2F2004001230292AC
:1018F0002246012500F0E8F9A4F134000B282FD886
:10190000BDF90E1000EE101A05FA00F14907B8EE05
:10191000C01A13D1012101FA00F010F0380F1BD1C9
:1019200010F4606F1CD09FED120A21EE000A9FEDAB
:10193000111A20EE010A04B0B0BD00BFB3EE000AD8
:1019400021EE000A9FED081BB7EEC00A20EE010B46
:10195000B7EEC00B04B0B0BD9FED070A81EE000AE0
:1019600004B0B0BD00BF00BF9A99999999992340DE
:1019700000003443000000380000FA44000000007A
:10198000B0B5044600F0F8F840F200010546C2F296
:101990000041621C097818BF0C4400BF00F0ECF84D
:1019A000401BA042FAD3B0BD2DE9F04F82B00D68C4
:1019B000002D00F0CB8000F1264242F2004302F1FC
:1019C000FF72C5F602030A2698424FEAB22444F297
:1019D000F44E08BF0926092C40F2040C38BF4FEA28
:1019E000B226C5F6020EC5F6000C009600220027AE
:1019F000002609E001360D6835FA06F307F1040701
:101A000002F1020200F0A280012303FA06F415EAB3
:101A10000408EFD0D1F804A003230AF0030B93408D
:101A2000ABF101056FEA0309012D0FD88368CD687A
:101A300003EA090395402B438360CAF3001543680A
:101A4000A34305FA06F42343436005E0BBF1030F0B
:101A500002D14FF0030B21E0C3688C6803EA09034D
:101A60009440BBF1020F43EA0403C36016D16FF048
:101A7000030307F01C0503EA56030F24034404FA8A
:101A800005FBD3F820A00C692AEA0B0AAC4044EA13
:101A90000A041C62D1F804A00AF0030B03680BFAD5
:101AA00002F403EA09031AF4403F43EA0403036023
:101AB000A0D0DEF8003040F2084A43F00203CEF82E
:101AC0000030DEF80030C5F6000A03F0020301938F
:101AD00026F00303019C07F00C040F2553F80A902D
:101AE000A54029EA0509009D05FA04F444EA090421
:101AF00043F80A404FF0B04ADAF800904C6849EADF
:101B00000805E30258BF29EA0805A302CAF80050F5
:101B1000DCF8009049EA080558BF29EA0805A30344
:101B2000CCF80050DCF8809049EA080558BF29EA53
:101B30000805E403CCF88050DCF87C3043EA080563
:101B400058BF23EA0805CCF87C5053E702B0BDE843
:101B5000F08F000000000000002A08BF0904816126
:101B6000704700000000000041F20000C5F6004090
:101B70000068000C7047000040F27850C2F200404C
:101B8000006870470000000090F84120202A03D12F
:101B900090F84020012A01D102207047242280F8C9
:101BA00041200268136823F001031360136823F4D3
:101BB00080531360136819431160116841F00101EB
:101BC0001160202180F84110002180F84010084663
:101BD000704700000000000090F84120202A03D147
:101BE00090F84020012A01D102207047242280F879
:101BF00041200268136823F001031360136823F483
:101C0000706343EA01211160116841F00101116024
:101C1000202180F84110002180F8401008467047CC
:101C200010B310B5044690F8410028B9002084F89C
:101C30004000204600F05CF9242084F8410094E83C
:101C40000910E2680168012A21F00101016023F016
:101C500070610161816821F40041816006D14CF41A
:101C6000004181600AE000BF01207047022A4CF465
:101C70000441816002D14FF400614160416804F188
:101C8000100C41F0007141F400414160C16821F441
:101C90000041C1609CE80E10114341EA0321C1607C
:101CA000216A41EA0C010160016841F00101016013
:101CB00000206064202184F84110206384F84200F1
:101CC00010BD0000000000002DE9F04F81B0044677
:101CD00090F8410020280DD1DDF82880B8F1000FE0
:101CE0000CD0DDF82CA0BAF1000F07D094F840001A
:101CF00001280BD1022001B0BDE8F08F4FF4007035
:101D00006064012001B0BDE8F08F00BF1D4617469A
:101D10008946012084F84000FFF72EFF216806461F
:101D20008A69120447D4222084F84100402084F8B4
:101D30004200E8B24FF0000B6FF39F29C4F844B0A3
:101D4000C4F8248049EA0040A4F82AA049F6000A11
:101D5000C4F834B0CFF6004A4A68DDF8308002EAB1
:101D60000A021044324600F50050486020464146C1
:101D700003F022F9A8B9012D206808D0390A816240
:101D800020464146324603F017F950B92068F9B2AF
:101D900081624021002220464346009603F054F819
:101DA00010B384F840B0012001B0BDE8F08F00BF4F
:101DB00088690004B7D5FFF7DFFE801B21681A2869
:101DC000F6D388690004F3D5606C40F020006064AD
:101DD000202084F84100002084F8420084F840006C
:101DE000012001B0BDE8F08F608D40F2000BC0F221
:101DF000FF1BB0F5807F09D320680BF5105350F816
:101E0000041F01EA0A02FF210BE000BF618D206878
:101E1000CAB250F8043F03EA0A0343EA02420BF550
:101E200092331A43FF270AF5806542EA09020260ED
:101E3000218510E0618D20682185C9B250F8042FFA
:101E40002A4042EA01414FF00072114341EA090180
:101E50000160608D80B30421002220464346009635
:101E600002F0F2FF00287FF44CAF2068616A406AFC
:101E70000870218D606A01306062481E2085618D86
:101E800001396185618D0029E3D00004E1D1802111
:101E9000002220464346009602F0D6FF00287FF439
:101EA00030AF608DB0F5807FC4D3206827855A4657
:101EB00050F8041F2940C8E720464146324603F047
:101EC0003BF800287FF41DAF206820214EF6000368
:101ED000C161CFF6006342681A40426084F8411045
:101EE000002084F8420084F8400001B0BDE8F08F83
:101EF000B0B5B8B002A9044601F10800B821FEF758
:101F00005BFB45F200412068C4F20001884201D029
:101F100038B0B0BD0820029002A80024039400F05D
:101F200067FA08B1FFF7CCFC44F2E04533A9C5F6E7
:101F30000205286840F002002860286800F00200CE
:101F400033903398C02033901220CDE9340404201C
:101F5000379040F200403694C5F60200FFF724FDAA
:101F6000A86840F40010A860A86800F40010019070
:101F7000019838B0B0BD000040F2000040F2785146
:101F8000C2F20040C2F2004100780A6810440860C2
:101F9000704700000000000080B5032000F0ACF89E
:101FA00001F082F944F2184147F63823C5F60201E0
:101FB000C0F600030A68096801F00F01C2F30322AA
:101FC000595C9A5C01F01F0102F01F02D04040F200
:101FD0000C02C2F2004220FA01F1116040F2080145
:101FE000C2F2004108600F2000F00AF800281CBF70
:101FF000012080BD00F02CF8002080BD0000000012
:1020000070B540F20006C2F200463178E1B10446F4
:1020100040F20800C2F200404FF47A72B2FBF1F1D4
:102020000068B0FBF1F001F07BFC0F2C4FF00105D4
:1020300008D838B94FF0FF3000222146002500F0C3
:102040002BF87460284670BD012070BD00000000B0
:1020500081B044F2F440C5F60200016841F002018B
:102060000160006800F002000090009801B0704725
:10207000002848BF704781B200F01F0001224909C3
:1020800002FA00F04EF20012CEF2000242F82100F5
:10209000704700000000000070B54EF60C5C4FF079
:1020A000FF36CEF2000C00F1604505F56445DCF822
:1020B0000030C3F3022E8EF00703042B28BF042345
:1020C000BEF1030406FA03F321EA030100F00F0353
:1020D00038BF0024043B0028634406FA04F048BFDC
:1020E00003F10C05A14022EA00000843000128701A
:1020F00070BD0000000000004EF60C514FF6FF03CB
:10210000CEF200010A681A4060F30A2242F08060B1
:1021100040F0FD7008607047B0B544F60C05C5F698
:10212000020529684907296806D401F00701081A41
:1021300018BF0120B0BD00BF21F00701084328608F
:10214000FFF71AFD044600BF55F8080C800407D4B9
:10215000FFF712FD001BB0F57A7FF5D90120B0BD65
:102160000020B0BD0000000080B501F015F844F279
:10217000204147F63822C5F60201C0F60002096880
:10218000C1F30211515C01F01F01C84080BD000085
:1021900080B544F2384EC5F6020E5EF8103C5EF88B
:1021A000101C5EF80C2CC1F3053CDEF80410BCF1E9
:1021B000000F15D0C908D20601EAE2716FF35F3152
:1021C00000EE101A03F003010229B8EE400A0DD008
:1021D00081B95EF8381C890610D49FED361A1BE0D1
:1021E00000218160C0E9001180BD00BF9FED301A61
:1021F00012E000BF9FED2D1A0EE000BF5EF8381C04
:1022000049F20002C0F2D032C1F3C10122FA01F159
:1022100001EE101AB8EE411ADEF800109FED263AD2
:102220006FF35F2102EE101ADEF80010C1F34621B1
:10223000B8EE422A00EE032A00EE10CAB7EE003ACA
:10224000B8EE400A81EE000A32EE031A02EE101ACE
:10225000B8EE422A20EE010A32EE031A80EE011A8D
:10226000BCEEC11A80ED001ADEF80010C1F3064181
:1022700001EE101AB8EE411A31EE031A80EE011A7F
:10228000BCEEC11A80ED011ADEF80010C1F3066140
:1022900001EE101AB8EE411A31EE031A80EE010A6F
:1022A000BCEEC00A10EE101A816080BD0024744A92
:1022B00020BCBE4B0024744C00000039000000001C
:1022C00080B544F2404EC5F6020E5EF8183C5EF84A
:1022D000181C5EF8142CC1F3055CDEF80410BCF188
:1022E000000F15D0C908D20501EAE2716FF35F3122
:1022F00000EE101A03F003010229B8EE400A0DD0D7
:1023000081B95EF8401C890610D49FED361A1BE097
:1023100000218160C0E9001180BD00BF9FED301A2F
:1023200012E000BF9FED2D1A0EE000BF5EF8401CCA
:1023300049F20002C0F2D032C1F3C10122FA01F128
:1023400001EE101AB8EE411ADEF800109FED263AA1
:102350006FF35F2102EE101ADEF80010C1F3462180
:10236000B8EE422A00EE032A00EE10CAB7EE003A99
:10237000B8EE400A81EE000A32EE031A02EE101A9D
:10238000B8EE422A20EE010A32EE031A80EE011A5C
:10239000BCEEC11A80ED001ADEF80010C1F3064150
:1023A00001EE101AB8EE411A31EE031A80EE011A4E
:1023B000BCEEC11A80ED011ADEF80010C1F306610F
:1023C00001EE101AB8EE411A31EE031A80EE010A3E
:1023D000BCEEC00A10EE101A816080BD0024744A61
:1023E00020BCBE4B0024744C0000003900000000EB
:1023F0002DE9F0470446C07844F22C480007C5F6A2
:10240000020833D5A06E4FEA305103290CD8DFE81B
:1024100001F003111D2600BFD8F8001041F400316F
:10242000C8F800101BE000BF01266078C0070BD081
:1024300020E000BF04F10800022103F025F9064660
:1024400060B16078C00715D1354646E004F1280038
:10245000022103F0ADF906460028F2D1A06ED8F8AB
:10246000241021F440110843C8F8240000266078A5
:10247000C007E9D0A06D04280ED83546DFE800F08B
:102480000412181E1E0000BFD8F80000354640F4A4
:102490000030C8F8000011E00125012760788007AE
:1024A0001FD452E004F10800002103F0EDF804E02D
:1024B00004F12800002103F07BF905462F461DB1E9
:1024C000607880070DD440E0D8F82400A16D20F09A
:1024D000070000250843C8F82400374660788007C5
:1024E00033D5E06D4FEAB01004280DD8DFE800F0D6
:1024F0000412181E1E0000BFD8F8000040F400307F
:10250000C8F8000012E000BF0125012660784007EE
:102510001FD455E004F10800002103F0B5F804E0F1
:1025200004F12800002103F043F905462E461DB1B1
:10253000607840070DD443E0D8F82400E16D20F422
:10254000E07000250843C8F824003E466078400744
:1025500036D5D4F8A8004FEA705004280CD8DFE82C
:1025600000F00313191F1F00D8F8000040F40030DA
:10257000C8F8000014E000BF01254FF001096078A1
:10258000000721D456E000BF04F10800002103F049
:102590007BF804E004F12800002103F009F9054666
:1025A000A9461DB1607800070ED443E0D8F82C008E
:1025B000D4F8A81020F4600000250843C8F82C00C7
:1025C000B1466078000735D5D4F8AC004FEA3060EA
:1025D00004280DD8DFE800F00412181E1E0000BF0A
:1025E000D8F8000040F40030C8F8000012E000BF46
:1025F00001250127E078800720D44EE004F108008F
:10260000002103F041F804E004F12800002103F068
:10261000CFF805462F461DB1E07880070ED43CE088
:10262000D8F82C00D4F8AC1020F0E0600025084366
:10263000C8F82C004F46E07880072ED5E06C4FEAB2
:10264000301003280ED8DFE800F00903130900BF9B
:10265000D8F8000040F40030C8F800002E467DB9DC
:1026600012E000BF012501266078C00619D44CE0B5
:1026700004F10800022103F007F805462E461DB1BB
:102680006078C0060DD440E0D8F82000E16C20F05E
:10269000300000250843C8F820003E466078C00698
:1026A00033D5206E4FEA303004280DD8DFE800F033
:1026B0000412181E1E0000BFD8F8000040F40030BD
:1026C000C8F8000012E000BF0125012760788006ED
:1026D0001FD44EE004F10800002102F0D5FF04E011
:1026E00004F12800002103F063F805462F461DB1D0
:1026F000607880060DD43CE0D8F82400216E20F4E8
:10270000E04000250843C8F824003746607880067A
:102710002FD5606E4FEA3040052809D8DFE800F079
:10272000040E1404040400BF2E46ADB918E000BF27
:1027300001250126607840061FD44FE004F108000F
:10274000012102F0A1FF04E004F12800012103F0BF
:102750002FF805462E461DB1607840060DD43DE0A9
:10276000D8F82400616E20F4E02000250843C8F862
:1027700024003E466078400630D5D4F8B0004FEAD9
:102780003070052808D8DFE800F0030D13030303B9
:102790002F46ADB918E000BF01250127607800067B
:1027A00020D442E004F10800012102F06DFF04E0B2
:1027B00004F12800012102F0FBFF05462F461DB160
:1027C000607800060ED430E0D8F82C00D4F8B010B1
:1027D00020F0E04000250843C8F82C003746607818
:1027E000000622D5206F58B1B0F1005F0CD0B0F1D7
:1027F000805F2FD1D8F8000040F40030C8F8000006
:102800002E469DB908E000BF04F10800012102F046
:102810003BFF05462E464DB9D8F82400216F20F025
:10282000405000250843C8F824003E46E078C00721
:1028300033D0A06C032813D8DFE800F008021A0890
:10284000D8F8000040F40030C8F80000A946BDB92F
:102850001AE000BF01250126E078C007E9D11CE09D
:1028600001254FF00109A07840061AD51CE000BFF1
:1028700004F10800022102F007FF0546A9461DB138
:10288000A07840060DD50FE0D8F82000A16C20F00C
:10289000030000250843C8F82000B146A078400690
:1028A00002D44F4618E000BFD8F8D40340F480703B
:1028B000C8F8D403FFF760F9064600BFD8F8D40380
:1028C000C00507D4FFF758F9801B6428F6D9032503
:1028D000032701E02F468DB12078C00761D0E06F5B
:1028E0004FEAF00005283BD8DFE800F0044046043A
:1028F000040400BF002D2E4646D149E0D8F844100C
:10290000D4F8B400414011F4407F11D0D8F84410FD
:10291000D8F8442042F48032C8F84420D8F8442043
:1029200021F4407122F48032C8F84420C8F84410E1
:10293000B0F5807F40F0DE82FFF71EF9064641F2D7
:10294000883A0325032700BFD8F84400800700F128
:10295000CF82FFF711F9801B5045F5D9BCE700BFC6
:1029600001260125207880071FD44CE004F10800DF
:10297000012102F089FE04E004F12800012102F0A7
:1029800017FF05462E461DB1207880070DD43AE08A
:10299000D8F82800E16F20F0380000250843C8F877
:1029A00028003E46207880072DD5A06F052809D83D
:1029B000DFE800F0040E1404040400BF2F46ADB994
:1029C00018E000BF01270125207840071FD44DE003
:1029D00004F10800012102F057FE04E004F1280090
:1029E000012102F0E5FE05462F461DB12078400783
:1029F0000DD43BE0D8F82800A16F20F00700002597
:102A00000843C8F828003746207840072ED5D4F868
:102A10009400052808D8DFE800F0030D1303030332
:102A20002E46ADB918E000BF0126012520788006AA
:102A300020D451E004F10800012102F025FE04E059
:102A400004F12800012102F0B3FE05462E461DB117
:102A5000207880060ED43FE0D8F82C00D4F89410EB
:102A600020F0070000250843C8F82C003E462078D7
:102A7000800631D5D4F890004FEA3070052809D887
:102A8000DFE800F0040E1404040400BF2F46ADB9C3
:102A900018E000BF012701252078400620D451E02E
:102AA00004F10800002102F0EFFD04E004F1280029
:102AB000022102F07DFE05462F461DB1207840061A
:102AC0000ED43FE0D8F82800D4F8901020F0E04071
:102AD00000250843C8F8280037462078400631D53D
:102AE000D4F89C004FEAB020052809D8DFE800F0B0
:102AF000040E1404040400BF2E46ADB918E000BF54
:102B0000012601252078000620D454E004F10800B5
:102B1000002102F0B9FD04E004F12800022102F0D6
:102B200047FE05462E461DB1207800060ED442E031
:102B3000D8F82C00D4F89C1020F4E050002508436D
:102B4000C8F82C003E462078000634D5D4F8A00002
:102B50004FEA703005280FD8DFE800F004141A049B
:102B6000040400BF2F46E5B12068010727D4C10641
:102B70003ED4000355D475E00127012520680107E4
:102B8000F5D51CE004F10800002102F07DFD04E011
:102B900004F12800022102F00BFE0546002D2F460D
:102BA000E2D1D8F82C00D4F8A01020F46040002521
:102BB0000843C8F82C00374620680107D7D5D4F859
:102BC0008400B0F5805F09D104F12800022102F0F1
:102BD000EFFD002818BF0127D4F88400D8F828108A
:102BE00021F440510843C8F828002068C106C0D528
:102BF000D4F89800B0F5807F09D104F128000221B3
:102C000002F0D6FD002818BF0127D4F89800D8F8A4
:102C10002C1021F440710843C8F82C0020680003F0
:102C200020D5D4F8A400B0F5003F0FD0B0F5803F18
:102C300006D078BB04F10800002102F025FD04E075
:102C400004F12800022102F0B3FD05462E4655B9D5
:102C5000D8F82C00D4F8A41020F440300025084304
:102C6000C8F82C003E46A07840072BD5D4F8880041
:102C7000B0F5401F0BD0B0F5001F11D0B0F5801F8C
:102C80002AD1D8F8000040F40030C8F800002F46E0
:102C9000CDB90DE001260125A0784007E6D411E06A
:102CA00004F12800012102F083FD05462F4655B9A5
:102CB000D8F82800D4F8881020F4401000250843E4
:102CC000C8F828003746A078C0070AD13E462168D8
:102CD000880016D533E000BF01270125A078C00782
:102CE000F4D0206DB0F5803F10D018BBD8F80000AC
:102CF00040F40030C8F800002E4685B121688800F5
:102D00001DD460688A0326D469E000BF04F108007E
:102D1000022102F0B9FC0546002D2E46EED1D8F86E
:102D20002000216D20F4803000250843C8F82000E1
:102D3000CCE700BF0126012521688800E1D504F118
:102D40002800022102F034FD002818BF0126D4E932
:102D500000108A0343D5D4F880206FF0010303EB01
:102D60003223022B0BD34FEA322343B1012B40F025
:102D7000B980D8F8003043F40033C8F800303DB3D0
:102D8000CA022FD4CA0037D48A0240D44A0048D499
:102D9000CA0F55D109025DD4C10766D181076FD42E
:102DA000410779D4010700F18380C10600F18C80CE
:102DB000800607D504F12800022102F0F9FC002862
:102DC00018BF0125002D18BF01252846BDE8F08752
:102DD000D8F8283023F440731A43C8F82820354621
:102DE000CA02CFD5D8F82420636F22F000421A43DC
:102DF000C8F82420CA00C7D558F81C2CD4F8B8301D
:102E000022F480421A4348F81C2C8A02BED5D8F816
:102E10002420E36E22F080721A43C8F824204A006E
:102E2000B6D558F81C2C22F4004248F81C2CD4F8D3
:102E3000BC2058F81C3C1A4348F81C2CCA0FA9D0D7
:102E4000D8F82020636D22F040521A43C8F82020A1
:102E50000902A1D5D8F82810D4F88C2021F440011B
:102E60001143C8F82810C10798D004F108000021C8
:102E700002F00AFC002818BF0546606881078FD55C
:102E800004F10800012102F0FFFB002818BF0546ED
:102E9000606841077FF586AF04F10800022102F067
:102EA000F3FB002818BF0546606801077FF57DAF7A
:102EB00004F12800002102F07BFC002818BF054621
:102EC0006068C1067FF574AF04F12800012102F0AB
:102ED0006FFC002818BF0546606880067FF572AF5A
:102EE00068E700BF0125CA027FF54CAF7AE700BF53
:102EF000D4F8B4004FF6CF7358F81C2CC0F2FF037F
:102F000000F4407122F47C5203EA10136FF31F3077
:102F1000B1F5407F08BF1A43002548F81C2CD8F8AB
:102F200044100843C8F84400FFF7BBBC0000000091
:102F30002DE9F04381B0002800F02A8142F2000818
:102F40000446C5F200288946D8F8000000F00F00BA
:102F500088420ED2D8F8000020F00F0040EA0900A5
:102F6000C8F80000D8F8000000F00F00484540F015
:102F70000F81206844F218474107C5F602070AD5B9
:102F800021693A6802F07002914204D93A6822F04D
:102F900070021143396001070AD561697A6802F04D
:102FA0007002914204D97A6822F07002114379606C
:102FB000C1060AD5A1697A6802F4E062914204D997
:102FC0007A6822F4E0621143796081060AD5E169EA
:102FD000BA6802F07002914204D9BA6822F0700215
:102FE0001143B96010F002010AD0E2683B6803F0B7
:102FF0000F039A4204D93B6823F00F031A433A6047
:10300000C20746D0386820F47061D4E90102012873
:1030100041EA0201396009D003280DD0022811D1FC
:1030200057F8181C890340F1B38010E057F8181CBA
:10303000C90540F1AD800AE057F8181C890140F13C
:10304000A78004E057F8181C490740F1A18057F801
:10305000081C21F00701084347F8080CFEF78CFD17
:10306000064641F2883500BF57F8080C616800F049
:103070003800B0EBC10F09D0FEF77EFD801BA842DF
:10308000F2D9032001B0BDE8F08300BF206800F052
:10309000020151B1E1683A6802F00F02914204D294
:1030A0003A6822F00F0211433960D8F8001001F09D
:1030B0000F0149450DD9D8F8001021F00F0141EA60
:1030C0000901C8F80010D8F8001001F00F014945B7
:1030D0005ED141070AD521693A6802F07002914237
:1030E00004D23A6822F070021143396001070AD510
:1030F00061697A6802F07002914204D27A6822F023
:10310000700211437960C1060AD5A1697A6802F498
:10311000E062914204D27A6822F4E062114379605D
:1031200080060AD5E069B96801F07001884204D2CE
:10313000B96821F070010843B86000F0B5F839684B
:1031400047F638233A68C0F60003C1F3032102F0C2
:103150000F02595C9A5C01F01F0120FA01F102F0A4
:103160001F0040F20C0221FA00F0C2F2004210608F
:1031700040F2040040F20802C2F20040C2F20042F3
:103180000068116001B0BDE8F043FEF739BF00BF31
:10319000012001B0BDE8F08380B500F085F844F26D
:1031A000184147F63823C5F60201C0F600030A6845
:1031B000096801F00F01C2F30322595C9A5C02F026
:1031C0001F0220FA02F201F01F0040F20C0122FA65
:1031D00000F0C2F20041086040F20801C2F2004172
:1031E0000A6080BD0000000080B500F05DF844F288
:1031F000184C47F63821C5F6020CC0F60001DCF881
:103200000020DCF8003003F00F03C2F30322CB5C94
:103210008A5C02F01F02D04003F01F0240F20C0350
:1032200020FA02F2C2F200431A6040F20803C2F22E
:1032300000431860DCF80400C0F30210085C00F0E2
:103240001F0022FA00F080BD80B500F02DF844F296
:10325000184C47F63821C5F6020CC0F60001DCF820
:103260000020DCF8003003F00F03C2F30322CB5C34
:103270008A5C02F01F02D04003F01F0240F20C03F0
:1032800020FA02F2C2F200431A6040F20803C2F2CE
:1032900000431860DCF80400C0F30220085C00F072
:1032A0001F0022FA00F080BD44F20041C5F6020181
:1032B0000869C0F3C200032810D002282ED098BBA2
:1032C0000868800649F20000C0F2D03058BF70474D
:1032D0000968C1F3C101C840704700BF8A6A886AA3
:1032E000C0F3051CC86ABCF1000F4B6B22D000F084
:1032F000010002F003024042022A00EAD3006FF309
:103300005F3000EE100AB8EE400A15D0C2B9086866
:10331000800619D49FED281A23E000BF47F640002D
:10332000C0F27D10704700BF40F60010C0F23D00B3
:10333000704700BF002070479FED1E1A11E000BFCC
:103340009FED1B1A0DE000BF086849F20002C0F2B1
:10335000D032C0F3C10022FA00F001EE100AB8EE3C
:10336000411A086B9FED153A6FF35F2002EE100AC9
:10337000086BC0F34620B8EE422A013000EE032A63
:1033800000EE10CAB7EE003AB8EE400A81EE000A2D
:1033900032EE031A20EE010A01EE100AB8EE411ACD
:1033A00080EE010ABCEEC00A10EE100A704700BFA2
:1033B0000024744A20BCBE4B0024744C0000003929
:1033C000F0B581B0002800F063810446007844F233
:1033D0000046C007C5F6020622D12078800740F1DA
:1033E000BC80306910F03801B06A3FD0182908BF9E
:1033F0005FEA80703AD0E0683168002862D021F03E
:10340000190108433060FEF7B7FB054630684007F6
:1034100048D4FEF7B1FB401B0228F7D977E100BF83
:10342000306900F03801B06A102905D018290BD195
:1034300000F00300022807D130688003CDD5606812
:103440000028CAD124E100BF606800284CD0B0F544
:10345000A02F61D0B0F5803F62D0306820F480307A
:103460003060306820F480205DE000BF30684007A5
:10347000E06802D5002800F00B81316821F01901C5
:1034800008433060FEF778FB054600BF3068400710
:1034900008D4FEF771FB401B02284FF00300F5D95A
:1034A00021E200BFFEF760FB41F20301884249D8E8
:1034B00020697168402821F47C314BD141F40030FF
:1034C0004AE000BF21F001003060FEF755FB0546E1
:1034D0003068400741D5FEF74FFB401B02284FF0F4
:1034E0000300F5D9FFE100BF306820F48030306080
:1034F000306820F480203060FEF73EFB054600BFB8
:10350000306880037FF569AFFEF736FB401B642807
:103510004FF00300F4D9E6E1306840F480203060D9
:10352000306840F480303060FEF726FB054600BF6F
:10353000306880033FF551AFFEF71EFB401B642847
:10354000F6D9E4E07068216920F0FE4040EA0160AD
:1035500002E000BF41EA003070602078C00654D518
:10356000306900F03801B06A082905D0182919D14E
:1035700000F00300012815D13068C00503D5E069CB
:10358000802840F08580FEF7EFFA41F2030188427F
:103590001ED8206A7168202821F0F84132D141F00C
:1035A000804031E0E0690028306819D040F08000A8
:1035B0003060FEF7E1FA05463068C005E3D4FEF757
:1035C000DBFA401B02284FF00300F5D98BE100BF66
:1035D000F068216A20F07C5040EA0160F06014E05D
:1035E00020F080003060FEF7C7FA05463068C0055D
:1035F0000BD5FEF7C1FA401B02284FF00300F5D9A6
:1036000071E100BF41EA806070602078000743D418
:103610002078800654D42078400765D4656A9DB32D
:10362000306900F03800182840F0A880012DB16AF8
:10363000306B2DD001F00302A36A9A4228D1C1F366
:103640000511E26A914223D10146226B6FF35F219B
:10365000013A91421CD1C0F34622616B01398A4282
:1036600016D1C0F30642A16B01398A4210D1C0F3D2
:103670000660E16B013988420AD1706BA16CC0F31E
:10368000CC00814240F03281002001B0F0BD00BF8B
:10369000012001B0F0BD00BF60690028706F39D013
:1036A00040F001007067FEF767FA0546706F80070B
:1036B000AED4FEF761FA401B0228F7D927E000BF1D
:1036C000A0690028306847D040F480503060FEF791
:1036D00053FA0546306880049DD4FEF74DFA401B2E
:1036E0000228F7D913E000BFD6F8000440F4807038
:1036F000C6F80004FEF740FA054600BFD6F80004FD
:10370000C00519D4FEF738FA401B6428F6D9032007
:1037100001B0F0BD20F001007067FEF72DFA0546FC
:10372000706F80077FF574AFFEF726FA401B022802
:103730004FF00300F4D9D6E0A068002840D0052857
:1037400058D001285AD0306F20F001003067306F18
:1037500020F0040055E000BF20F480503060FEF7F8
:103760000BFA0546306880047FF555AFFEF704FA82
:10377000401B02284FF00300F4D9B4E0306820F079
:1037800080703060FEF7F8F9022D05460CD100BFBD
:103790003068800148D5FEF7EFF9401B02284FF052
:1037A0000300F5D99FE000BF306880017FF56CAF62
:1037B000FEF7E2F9401B02284FF00300F4D992E033
:1037C000306F20F001003067306F20F00400306768
:1037D000FEF7D2F9054641F28837306F80077FF552
:1037E0001DAFFEF7C9F9401BB8424FF00300F4D9F2
:1037F00079E000BF306F40F004003067306F40F078
:1038000001003067FEF7B8F9054641F2883700BF7E
:10381000306F80073FF502AFFEF7AEF9401BB842AC
:103820004FF00300F4D95EE004F12807B06A40F2DB
:10383000F33188438ECF0843591E40EA02104FF4FB
:103840007E426FF35F21B06202EB47204FF4FE022D
:1038500080B2E36B0844A16B02EB01414FF0FE42E2
:1038600001F4FE0102EB0362084402F0FE41084449
:103870003063F06A4FF6F87120F00100F062706B6F
:10388000A26C884340EAC2007063F06A216C20F0A9
:103890000C000843F062F06A616C20F002000843FB
:1038A000F062F06A40F48030F062F06A40F4003078
:1038B000F062F06A40F48020F062F06A40F00100AB
:1038C000F062306840F080703060FEF755F90446D1
:1038D000306880013FF5D8AEFEF74EF9001B022894
:1038E0004FF00300F4D901B0F0BD00BFF06A20F042
:1038F0000100F062FEF740F90546FEF73DF9A842E7
:10390000FBD0706B4FF6F871A26C884340EAC2009E
:103910007063F06A40F00100F062002001B0F0BD79
:10392000411E0020B0EB116F02D00120704700BF94
:103930004EF21002F023CEF2000251604EF62351F7
:10394000CEF200010B7007219060116070470000FB
:1039500070470000000000007047000000000000F9
:103960007047000000000000B0B590F83C20012A2C
:103970004FF002025BD080F83D2040F2004C02681C
:10398000C4F2010C42F4806363455368D2F808E046
:1039900002BF23F470034C68234341F2FF740D68A7
:1039A000C4F2000423F07003A24243EA050353600B
:1039B0000CDC40F2FF73C4F200039A4216DCB2F151
:1039C000804F29D040F2004318E000BF40F2FF339F
:1039D000C4F201039A4217DC41F60003C4F200036B
:1039E0009A4219D00023C4F2010309E040F6000313
:1039F000C4F200039A420FD040F60043C4F2000321
:103A00009A4209D00DE000BF44F20003C4F2010362
:103A10009A4201D0624504D12EF08003896819438F
:103A200091600022012180F83D1080F83C20104672
:103A3000B0BD00000000000060B310B5044690F86F
:103A40003D0028B9002084F83C00204600F024F80E
:103A5000022084F83D002068211D02F025F8012095
:103A600084F8480084F83E0084F83F0084F8400061
:103A700084F8410084F8420084F8430084F844004C
:103A800084F8450084F8460084F8470084F83D0037
:103A9000002010BD0120704780B582B040F6004183
:103AA0000068C4F20001884214D040F60001C4F25C
:103AB000000188420CD144F2E840C5F602000168DA
:103AC00041F004010160006800F0040001900198D9
:103AD00002B080BD44F2E8400022C5F60200016851
:103AE00041F0080101600068002100F0080000902A
:103AF00000983220FEF7D0FA322002B0BDE88040B4
:103B0000FEF7B6BA0000000090F83D1001291BD165
:103B1000022180F83D10016841F2FF70C4F20000FC
:103B20008142C86840F00100C8600FDC40F2FF70BD
:103B3000C4F20000814217DCB1F1804F2CD040F27A
:103B40000040C4F2000025E00120704740F2FF3041
:103B5000C4F20100814213DC41F60000C4F200000F
:103B6000814219D0002013E040F60000C4F20000AA
:103B7000814211D040F60040C4F200000AE000BFCC
:103B800044F20000C4F20100814205D040F200403E
:103B9000C4F2010081420BD107228868C0F2010201
:103BA00002400020062A18BFB2F5803F00D17047BE
:103BB000086840F001000860002070470000000025
:103BC00080B590F83C20012A4FF0020200F0A78057
:103BD00080F83D208822D0F800C0CFF6CE72DCF805
:103BE00008301A40CCF808200B686F2B0EDDB3F1BB
:103BF000101F37DAB3F5005F46DA702B00F09280C1
:103C0000B3F5805F00F08480D6E000BF2F2B33DD5A
:103C10004F2B3FDC302B6FD0402B40F0CD80D1F8C4
:103C200004E0C968DCF82030DCF8202022F0010232
:103C3000CCF82020DCF8182022F0F00242EA011132
:103C400023F00A02CCF8181042EA0E01CCF820103A
:103C50004FF68872DCF80810CFF6CF72114047316A
:103C600054E000BF2F21C0F210018B423ADCB3F1C7
:103C7000101F41D020213BE0002B18BF102B3BD060
:103C8000202B39D098E000BF60D0B3F5801F33D02F
:103C900092E000BF502B6DD0602B40F08D80D1F8AA
:103CA00004E0C968DCF8203023F01003CCF82030A1
:103CB000DCF81830DCF8202023F4704322F0A00256
:103CC00043EA0131CCF8181042EA0E11CCF820106A
:103CD0004FF68872DCF80810CFF6CF7211406731CA
:103CE00014E000BF3021C0F210018B4204D040210B
:103CF000C0F210018B425FD14FF68872DCF80810D9
:103D0000CFF6CF721140194341F00701CCF80810EB
:103D10000022012180F83D10002180F83C1010465F
:103D200080BD00BFD1E901E3C968DCF8082043EA9F
:103D30000E0322F47F4243EA01211143CCF808101C
:103D4000DCF8081041F07701E0E700BFD1E901E3BA
:103D5000C968DCF8082043EA0E0322F47F4243EAF4
:103D600001211143CCF80810DCF8081041F480411F
:103D7000CCE700BFD1F804E0C968DCF82030DCF8FB
:103D8000202022F00102CCF82020DCF8182022F0BC
:103D9000F00242EA011123F00A02CCF8181042EABC
:103DA0000E01CCF820104FF68872DCF80810CFF620
:103DB000CF7211405731A9E70122AAE700000000A5
:103DC000002857D02DE9F04381B0044690F83D001B
:103DD0000D4628B9002084F83C00204600F04CF83D
:103DE000022084F83D0020684BF6F872CFF6FE7290
:103DF000816811408160211D01F056FE20684FF658
:103E0000FF79D0F808808269D0F820C0AF69D5E981
:103E1000026122EA090246EA07264FF6FC47BE4342
:103E2000EF6911432A6931432E6A41EA07216F691C
:103E3000D5E9003E41EA02112CF0AA0242EA0E0244
:103E400043EA080341EA06318360816142EA0711CF
:103E50000162012084F8480084F83E0084F83F00A5
:103E600084F8440084F8450084F83D00002001B047
:103E7000BDE8F0830120704780B586B0006800215E
:103E8000B0F1804F0591CDE90311029101912BD042
:103E900040F20041C4F2000188423FD00021C4F248
:103EA000010188425FD144F2E040C5F60200016999
:103EB00041F001010161016901F0010100910099E6
:103EC000016841F0100101600068012100F010005C
:103ED000009000984FF4206001900020C5F6020089
:103EE00000F5805036E000BF44F2E040C5F6020025
:103EF000816841F001018160816801F00101009158
:103F00000099016841F0010101600068012100F0A1
:103F1000010000900098032018E000BF44F2E04048
:103F2000C5F60200816841F002018160816801F0FC
:103F3000020100910099016841F0010101600068EF
:103F4000022100F0010000900098C02001900020A4
:103F5000C5F60200059101A9022202920022CDE9D4
:103F60000322FDF721FD06B080BD00000000000027
:103F700080B590F83E20042990F83F3090F844E056
:103F800090F845C00AD0B9B9012A4FF0010208BF24
:103F9000BEF1010F34D0104680BD00BF0122012BBD
:103FA00008BFBCF1010FF6D1022180F83F1080F864
:103FB0004510006820E000BF012A4FF0010208BF51
:103FC000012BE8D1BEF1010F08BFBCF1010FE2D116
:103FD0004FF0020280F83E2080F83F2080F8442015
:103FE00080F8452089B10068016A21F00101016271
:103FF000016A41F00101016210216FF0100208E036
:10400000022180F83E1080F84410006801216FF012
:104010000102036A1A400262026A114301620168E6
:10402000002241F001010160104680BD0000000047
:10403000704700000000000010B5044600680169E8
:10404000890744BFC1685FEA81713FD401694907AC
:1040500044BFC1685FEA417144D40169090744BFA4
:10406000C1685FEA01714BD40169C90644BFC168E8
:104070005FEAC16150D40169C9071CBFC1685FEA2A
:10408000C17157D10169090644BFC1685FEA016186
:1040900058D40169C90544BFC1685FEA016159D4B8
:1040A0000169490644BFC1685FEA41615AD40169A8
:1040B000890646BFC1685FEA816110BD6FF02001CB
:1040C00001612046BDE81040FFF74ABC6FF00201D5
:1040D000016101212177806980074BD02046FFF7DD
:1040E000A7FF4DE06FF00401016102212177806993
:1040F00010F4407F48D02046FFF79AFF4AE000BF07
:104100006FF00801016104212177C069800745D063
:104110002046FFF78DFF47E06FF010010161082195
:104120002177C06910F4407F42D02046FFF780FF1E
:1041300044E000BF6FF001010161204600F0A8FBE0
:1041400020689FE76FF0800101612046FFF704FCC3
:1041500020689EE76FF4807101612046FFF7F8FB4D
:1041600020689DE76FF040010161204600F094FB5C
:1041700020689CE7204600F027F8204600F0BCFAB3
:1041800000202077206861E7204600F01DF82046D7
:1041900000F0B2FA0020207720685EE7204600F0A9
:1041A00013F8204600F0A8FA0020207720685BE78B
:1041B000204600F009F8204600F09EFA0020207703
:1041C000206858E700000000704700000000000071
:1041D0002DE9F04190F83C30012B03D10220BDE8DD
:1041E000F08100BF4FEAB202052A31D8DFE812F0B1
:1041F000060038007600B400DA000001036843F6D8
:10420000FF76C4F201061A6AB34222F001021A6272
:104210001A461C6AD3F804E024F0020452F818CFBE
:104220008D6844EA0504D1F8008040F3078144F228
:104230000007C4F20107BB4200F00B8144F60007FF
:10424000C4F20107BB4200F0048144F20047FCE0E5
:104250000121002280F83C200846BDE8F08100BF23
:10426000036840F2004E43F48067C4F2010E1A6AFC
:10427000774522F010021A621A461C6A5D6824F023
:10428000200452F818CF8E6844EA061407D1CE688D
:104290006FF0400724F0C00407EA0616344343F6E3
:1042A000FF76D1F80080C4F20106B34240F3EC80FF
:1042B00044F20007C4F20107BB4200F0EC8044F670
:1042C0000007C4F20107BB4200F0E58044F200475A
:1042D000C4F20107BB4200F0DE80E3E0036840F275
:1042E000004E43F48067C4F2010E1A6A774522F447
:1042F00080721A621A461C6A5D6824F4007452F8CF
:104300001CCF8E6844EA062407D1CE6840F2FF47EE
:10431000360224F44064BE43344343F6FF76D1F8BA
:104320000080C4F20106B34240F3D48044F2000797
:10433000C4F20107BB4200F0D48044F60007C4F287
:104340000107BB4200F0CD8044F20047C4F20107F0
:10435000BB4200F0C680CBE0036843F6FF77C4F2AF
:1043600001071A6ABB4222F480521A621A46D3F835
:1043700020C05C6852F81C6F0D68D1F808E040F36B
:10438000CF8044F20007C4F20107BB4200F0D380A3
:1043900044F60007C4F20107BB4200F0CC8044F2AF
:1043A0000047C4E0036843F6FF77C4F201071A6AC6
:1043B000BB4222F480321A621A46D3F820C05C68ED
:1043C00052F8546F0D68D1F808E040F3D38044F2FE
:1043D0000007C4F20107BB4200F0D78044F6000793
:1043E000C4F20107BB4200F0D08044F20047C8E0AD
:1043F000036843F6FF77C4F201071A6ABB4222F44E
:1044000080121A621A46D3F820C05C6852F8546FC2
:104410000D68D1F808E040F3D98044F20007C4F2F7
:104420000107BB4200F0DD8044F60007C4F201073B
:10443000BB4200F0D68044F20047CEE00027C4F231
:104440000107BB4205D040F20047C4F20107BB425E
:1044500005D1CF6824F00C0427F004073C43B34295
:1044600040F3E28044F20006C4F20106B34200F0D9
:10447000E68044F60006C4F20106B34200F0DF8095
:1044800044F20046D7E000BF0027C4F20107BB4258
:1044900001D0734506D1D1E90576374325F440664E
:1044A00046EA870548F6FF475D60CFF6FF6707EAF3
:1044B0000C0747EA08279F614F6809699F631C62E0
:1044C0009F6947F400679F619F6927F480679F6138
:1044D000A7E000BF0027C4F20107BB4201D073452B
:1044E00006D1D1E90576374325F4405646EA07154B
:1044F0004FF68C775D60CFF6FE7707EA0C0747EA48
:104500000807DF614F680969DF631C62DF6947F0F4
:104510000807DF61DF6927F00407DF61ADE000BF56
:104520000027C4F20107BB4205D040F20047C4F2A5
:104530000107BB4204D14F6924F4804444EA871444
:1045400048F6FF475C60CFF6FF673E402CF400570B
:1045500046EA0524DC614E6809691E6447EA0E37A5
:104560001F62DF6947F40067DF61DF6927F4806756
:10457000DF6156E00027C4F20107BB4205D040F2DC
:104580000047C4F20107BB4204D14F6924F48034D0
:1045900044EA07244FF68C775C60CFF6FE7703374A
:1045A0003E402CF4003746EA05045C654E68096914
:1045B0009E6547EA0E471F625F6D47F008075F651B
:1045C0005F6D27F004075F6557E000BF0027C4F266
:1045D0000107BB4205D040F20047C4F20107BB42CD
:1045E00004D14F6924F4802444EA872448F6FF4725
:1045F0005C60CFF6FF6707F540773E402CF400176C
:1046000046EA05245C654E680969DE6547EA0E578F
:104610001F625F6D47F400675F655F6D27F4806719
:104620005F65090229E000BF0026C4F20106B3421B
:1046300005D040F20046C4F20106B34206D12EF482
:104640004077D1E90565374347EA050E4FF68C758B
:10465000C3F804E0CFF6FE750CEA050747EA080741
:104660009F614F6809695F631C629F6947F0080793
:104670009F619F6927F004079F61136819431160C8
:104680000021002280F83C200846BDE8F0810000AF
:1046900060B310B5044690F83D0028B9002084F8B6
:1046A0003C00204600F024F8022084F83D002068F9
:1046B000211D01F0F9F9012084F8480084F83E003A
:1046C00084F83F0084F8400084F8410084F84200F8
:1046D00084F8430084F8440084F8450084F84600D8
:1046E00084F8470084F83D00002010BD0120704789
:1046F000704700000000000070470000000000004C
:1047000071B10A1F4FEAB202032A11D8DFE802F0A2
:1047100002161E2400F13F031B78012B13D120E069
:1047200090F83E20012A0ED1022280F83E2032E08D
:1047300000F143031B78012B05D112E000F1400387
:104740001B78012B0DD00120704700BF00F1410301
:104750001B78012B05D0F6E700F142031B78012BF3
:10476000F1D1032A08D8DFE802F0030B0F1300BFD2
:10477000022280F83F200EE0022280F843200AE067
:10478000022280F8402006E0022280F8412002E068
:10479000022280F84220026801F01F00012101FA84
:1047A00000F0116A814311624FF6FF71C4F20001FB
:1047B0008A42116A40EA0100106219DC40F2FF707F
:1047C000C4F2000082422FDD40F60000C4F2000077
:1047D000824243D040F60040C4F2000082423DD005
:1047E00041F60000C4F20000824237D048E000BF2A
:1047F00043F6FF700021C4F20100C4F201018242BD
:1048000044F20000C4F2010018DD82421ED044F6DA
:104810000003C4F201039A4218D044F20043C4F2E8
:1048200001039A4212D02BE0B2F1804F16D040F231
:104830000040C4F20000824210D021E08A4205D03C
:1048400040F20043C4F201039A4219D1536C8A42E8
:1048500043F40041516418BF82420BD10721906894
:10486000C0F2010101400020062918BFB1F5803FC8
:1048700006D1704740F20040C4F201008242EDD000
:10488000106840F001001060002070470000000038
:1048900002F036B800000000704700000000000081
:1048A00090F88410012901D1022070472421C0F81A
:1048B000881002681368116823F0005321F0010189
:1048C00011600021416613602022C0F8882080F822
:1048D000841008467047000070B590F88420012AC3
:1048E00002D1022070BD00BF2422C0F888200268D7
:1048F000D0F864E0BEF1000FD2F800C0136823F0D6
:1049000001031360936823F0606341EA030191603F
:104910001AD0916847F6602E9368C0F6000E5B0FC0
:1049200047F66825C1F34266C0F600051EF803404D
:10493000E95C2301B3FBF1F11EF80630AE5D1B010B
:10494000B3FBF6F302E000BF01210123A0F86A10D7
:104950002021A0F86830C2F800C0C0F888100021FB
:1049600080F88410084670BD70B590F88420012A44
:1049700002D1022070BD00BF2422C0F88820026846
:10498000D0F864E0BEF1000FD2F800C0136823F045
:1049900001031360936823F0604341EA03019160CF
:1049A0001AD0916847F6602E9368C0F6000E5B0F30
:1049B00047F66825C1F34266C0F600051EF80340BD
:1049C000E95C2301B3FBF1F11EF80630AE5D1B017B
:1049D000B3FBF6F302E000BF01210123A0F86A1047
:1049E0002021A0F86830C2F800C0C0F8881000216B
:1049F00080F88410084670BD10B5B0B10446D0F8F8
:104A0000880028B9002084F88400204600F028F8A7
:104A10002420C4F888002068016821F001010160A9
:104A2000204601F019FA012802D1012010BD00BF73
:104A3000A06A10B1204601F0E3F82068416821F433
:104A400090414160816821F02A018160016841F054
:104A5000010101602046BDE8104001F041B90000AD
:104A600010B5B8B000210446CDE93611CDE93411B6
:104A7000339102A8C021FBF79FFD44F6FF31206867
:104A8000C4F20001884235DC44F20041C4F2000166
:104A900088425FD044F60001C4F20001884240F031
:104AA000B380002003900220029002A8FDF7A0FC32
:104AB00008B1FCF705FF44F2E040C5F6020081684A
:104AC00041F480218160816801F480210191019984
:104AD000016841F002010160006800F002000190ED
:104AE00001984FF4406033900020C5F6020000F5B5
:104AF000806056E041F20001C4F20101884253D0C7
:104B000044F60041C4F2000188427DD100200390A8
:104B10000220029002A8FDF76BFC08B1FCF7D0FE62
:104B200044F2E040C5F60200816841F40021816052
:104B3000816801F4002101910199016841F00101AE
:104B400001600068062100F00100019001984FF417
:104B5000C0504CE0002003900220029002A8FDF714
:104B600047FC08B1FCF7ACFE44F2E040C5F6020099
:104B7000816841F400318160816801F40031019164
:104B80000199016841F008010160006800F0080027
:104B900001900198602033900020C5F6020000F5D6
:104BA0004060072127E000BF002003900120029011
:104BB00002A8FDF71DFC08B1FCF782FE44F2E040BC
:104BC000C5F60200016941F010010161016901F0BF
:104BD000100101910199016841F001010160006833
:104BE000072100F00100019001984FF4C06033905C
:104BF0000020C5F60200379133A902223492002228
:104C0000CDE93522FCF7D0FE38B010BD0000000021
:104C10002DE9F04182B00446D0F8880020281FD149
:104C20000D4600294FF001004ED01746002A4BD008
:104C300098460020C4F890002120C4F88800FCF7B2
:104C40009BFFA4F85470A4F856700746A168B1F50C
:104C5000805F01D1206938B12E46002512E000BFE7
:104C6000022002B0BDE8F08100260BE035F8020B0F
:104C7000216800266FF35F208862B4F8560001387F
:104C8000A4F85600B4F8560080B1802100222046D6
:104C90003B46CDF8008001F03BFBC8B9002EE5D0C3
:104CA000206816F8011B8162E7E700BF402100225F
:104CB00020463B46CDF8008001F02AFB2021002849
:104CC000C4F8881018BF032002B0BDE8F08100BF0F
:104CD0002020C4F88800032002B0BDE8F081000065
:104CE000FEE700000000000070B50446006883691C
:104CF000DB0603D40021002269E000BF0E4610212C
:104D0000C161816989065ED4711C52D015463EBBD3
:104D1000FCF732FF2068426894F8421083691B0454
:104D20000CD512F4804209D1202907D0416841F402
:104D300080414160FCF720FF054600BF2068816983
:104D4000890605D4FCF718FF401B1A28F6D328E083
:104D500081698906DCD536E020688169890632D40C
:104D6000FCF70AFF401BB042F6D92068426894F86D
:104D7000421083691B040BD512F4804208D120290C
:104D800006D0416841F480414160FCF7F5FE0546DC
:104D9000206880698006DFD4FCF7EEFE401B1A28ED
:104DA000F6D3206801228169242110E081698906F7
:104DB00009D48169890606D4816989065CBF816945
:104DC0005FEA8161F2D52021C1610122042183695A
:104DD000DE0505D541F001014FF48072C261012268
:104DE0005E0505D49B050AD472B9002070BD00BFD2
:104DF00041F008019A054FF48062C26104D541F088
:104E000002014FF40072C2618269920701D500224B
:104E100082628269D20703D1826942F00102826113
:104E20004EF600034268CFF600631A404260606CA1
:104E300008436064202084F84100002084F8420088
:104E400084F84000012070BD2DE9F041064600685D
:104E50000C4687693940091BB1FA81F14909914231
:104E600065D115461F46591C48D0AFB9FCF784FEE2
:104E7000306881692140091BB1FA81F14909A942D1
:104E800025D080692040001BB0FA80F04009A8427C
:104E9000ECD00020BDE8F081DDF8188008E000BF0C
:104EA00080692040001BB0FA80F04009A8423ED142
:104EB000FCF762FEA0EB0800B8423068F0D98169C7
:104EC0002140091BB1FA81F14909A942E8D1706C6E
:104ED00040F020007064202086F84100002086F811
:104EE000420086F840000120BDE8F0818169214040
:104EF000091BB1FA81F14909A94218D18169214000
:104F0000091BB1FA81F14909A94210D181692140F7
:104F1000091BB1FA81F14909A94201BF8169214008
:104F2000091BB1FA81F104BF4909A942DED0002072
:104F3000BDE8F0810000000070B50446006880699B
:104F4000800635D415460E4619B928E080698006DA
:104F50002ED4204631462A46FFF7C6FE30BBFCF76A
:104F60000BFE401BB0422068F0D981698906EDD460
:104F7000606C40F020006064202084F84100002034
:104F800084F8420084F84000012070BDFCF7F4FD75
:104F9000206881698906EBD58069800608D40021E4
:104FA00020462A46FFF7A0FE0028EFD0012070BD62
:104FB000002070BD0000000070B5044600688069E4
:104FC000800720D415460E46481C11D00EBB00BFEA
:104FD000002120462A46FFF787FEA8BBFCF7CCFD40
:104FE00020688169890723D580698007F0D50AE0A8
:104FF0004FF0FF3120462A46FFF776FE20BB20689F
:1050000080698007F4D5002070BD00BF80698007EB
:10501000F9D4204631462A46FFF766FEA0B9FCF7D0
:10502000ABFD401BB0422068F0D981698907EDD4FF
:10503000606C40F020006064202084F84100002073
:1050400084F8420084F84000012070BD0000000098
:105050002DE9F04387B044F2E0404FF00009C5F677
:105060000200CDF81890002400220168C5F6020461
:1050700041F00401016001683C2601F00401019146
:105080000199016841F080010160016801F080012F
:1050900001910199016841F001010160016801F08D
:1050A000010101910199016841F01001016001685D
:1050B00001F0100101910199016841F002010160C4
:1050C000016801F0020101910199016841F00801B4
:1050D000016000683C2100F0080001900198204622
:1050E000FCF73AFD04F580554FF4A06100222846F4
:1050F0004FF4A068FCF730FD029602AE2046314620
:105100000127CDF81490CDE90379FCF74DFC284632
:105110003146CDE90287CDE90499FCF745FC07B09B
:10512000BDE8F0830000000080B540F29C0045F22D
:105130000041C2F200404EF6FF22C4F20001C0F26C
:10514000C002C0E90012002181600122C0E90321F0
:10515000C0E90511C0E90711FCF762FD08B1FCF7D1
:10516000AFFB40F29C000021C2F20040FCF70CFDB6
:1051700008B1FCF7A5FB40F29C000021C2F2004000
:10518000FCF72AFD002808BF80BDBDE88040FCF781
:1051900097BB00000000000010B58CB040F2F0009A
:1051A0000021C2F200400024C4F201010294C0E9CF
:1051B00000144FF6FF718460C0E9031401210B94C1
:1051C000CDE90314CDE90514CDE9091403A9CDE90E
:1051D0000044C0E90544CDE90744FEF7F1FD08B1FC
:1051E000FCF76EFB40F2F0006946C2F20040029408
:1051F000CDE90044FEF7B8FB08B1FCF761FB0CB049
:1052000010BD00000000000010B58CB040F23C1052
:105210000024C2F200404FF080410194C0E9001424
:105220004FF6FF718460C0E9031401218461CDE968
:105230000314CDE90514CDE9091403A90B94CDE9B4
:105240000744FEF7BDFD08B1FCF73AFB40F23C1005
:105250006946C2F2004000940294FEF785FB08B153
:10526000FCF72EFB0CB010BD10B58CB040F28810CE
:1052700040F20041C2F200400024C4F20001019457
:10528000C0E900144FF6FF718460C0E903140121E6
:105290008461CDE90314CDE90514CDE9091403A90E
:1052A0000B94CDE90744FEF78BFD08B1FCF708FB32
:1052B00040F288106946C2F2004000940294FEF762
:1052C00053FB08B1FCF7FCFA0CB010BD0000000065
:1052D000B0B594B040F2D41040F60005C2F20040E0
:1052E00000210E91C4F20005CDE90C11CDE90911A0
:1052F000CDE90711CDE90511CDE90311CDE9011182
:10530000C0E9005181604FF6FF72C0E9032181615D
:10531000FEF792FB08B1FCF7D3FA4FF480500B90E4
:1053200040F2D4100BA9C2F20040FEF749FC08B1CC
:10533000FCF7C6FA40F2D410C2F20040FFF7A8F919
:1053400008B1FCF7BDFA40F2D41008A9C2F200403F
:10535000002408940A94FEF707FB08B1FCF7B0FAA2
:10536000602001A9CDE9010440F2D4100022C2F26C
:10537000004003940594FEF72BFF08B1FCF7A0FA58
:1053800040F2D41001A9C2F200400422FEF720FF2F
:1053900008B1FCF795FA40F2D41401A9C2F2004416
:1053A00008222046FEF714FF08B1FCF789FA2068AE
:1053B000A84201D014B0B0BD44F2E040C5F60200EE
:1053C000016841F0080101600068002100F0080058
:1053D0000F900F984FF4E0400F9002201090139020
:1053E00040F60040CDE91111C5F602000FA9FCF707
:1053F000DBFA14B0B0BD000080B588B040F22020C8
:1054000040F60042C2F2004000210791C4F20002BF
:10541000CDE905110291026040F2ED22C0E90121BF
:1054200041F28732C0E9032180218161FEF704FB4C
:1054300008B1FCF745FA4FF48050049040F2202068
:1054400004A9C2F20040FEF7BBFB08B1FCF738FA32
:1054500000200190039040F22020C2F2004001A9F8
:10546000FEF782FA08B1FCF72BFA08B080BD000005
:1054700080B540F2284044F60041C2F20040C4F238
:1054800000010C2201604FF4E13141600021C0E9CC
:1054900002110161C0E90521C0E90711C0E9091144
:1054A000FFF7AAFA08B1FCF70BFA40F228400021F6
:1054B000C2F20040FFF758FA08B1FCF701FA40F2D7
:1054C00028400021C2F20040FFF706FA08B1FCF7BD
:1054D000F7F940F22840C2F20040FFF7E1F9002856
:1054E00008BF80BDBDE88040FCF7EAB900000000BD
:1054F00080B540F26C2041F20001C2F20040C4F2DB
:1055000001010C2201604FF4E13141600021C0E94A
:1055100002110161C0E90521C0E90711C0E90911C3
:10552000FFF76AFA08B1FCF7CBF940F26C200021D2
:10553000C2F20040FFF718FA08B1FCF7C1F940F2D7
:105540006C200021C2F20040FFF7C6F908B1FCF759
:10555000B7F940F26C20C2F20040FFF7A1F9002831
:1055600008BF80BDBDE88040FCF7AAB9000000007C
:1055700080B540F2003044F20041C2F20040C4F273
:1055800000010C2201604FF4E13141600021C0E9CB
:1055900002110161C0E90521C0E90711C0E9091143
:1055A000FFF72AFA08B1FCF78BF940F2003000212E
:1055B000C2F20040FFF7D8F908B1FCF781F940F2D8
:1055C00000300021C2F20040FFF786F908B1FCF775
:1055D00077F940F20030C2F20040FFF761F900288D
:1055E00008BF80BDBDE88040FCF76AB9000000003C
:1055F00080B540F2943044F60001C2F20040C4F29B
:1056000000010C2201604FF4E13141600021C0E94A
:1056100002110161C0E90521C0E90711C0E90911C2
:10562000FFF7EAF908B1FCF74BF940F2943000219A
:10563000C2F20040FFF798F908B1FCF741F940F2D7
:1056400094300021C2F20040FFF746F908B1FCF7A0
:1056500037F940F29430C2F20040FFF721F90028F8
:1056600008BF80BDBDE88040FCF72AB900000000FB
:10567000FEE7000000000000FEE700000000000060
:105680007047000000000000F0B581B044F22C47E4
:10569000C5F6020757F8042C02F00302032A03D1CF
:1056A000012001B0F0BD00BF054657F82C0C0C4698
:1056B00020F0806047F82C0CFCF75EFA064600BF2D
:1056C00057F82C0C000105D5FCF756FA801B022870
:1056D000F6D964E057F8040CEE6895E80E0020F463
:1056E0007C30012C40EA0130A2F101016FF35F210F
:1056F0004FF47E4202EB432247F8040C92B24FF083
:10570000FE4302EB01004FF4FE012A6901EB064162
:1057100001F4FE0103EB0262084402F0FE4108447A
:10572000F8603868696920F0C00040EA010038601C
:105730003868A96920F0200040EA01003860386824
:105740004FF6F87120F0100038603869EA6920EAF5
:1057500001004FF4001140EAC2003861386808BF08
:105760004FF4801140F01000002C386008BF4FF457
:10577000002138680843386057F82C0C40F08060EE
:1057800047F82C0CFCF7F8F9044600BF57F82C0C2E
:10579000000107D4FCF7F0F9001B0328F6D303201F
:1057A00001B0F0BD002001B0F0BD0000000000001D
:1057B000F0B581B044F22C47C5F6020757F8042C27
:1057C00002F00302032A03D1012001B0F0BD00BFA3
:1057D000054657F82C0C0C4620F0805047F82C0C4E
:1057E000FCF7CAF9064600BF57F82C0C800005D517
:1057F000FCF7C2F9801B0228F6D964E057F8040CC4
:10580000EE6895E80E0020F07C70012C40EA015013
:10581000A2F101016FF35F214FF47E4202EB4322BC
:1058200047F8040C92B24FF0FE4302EB01004FF434
:10583000FE012A6901EB064101F4FE0103EB02625D
:10584000084402F0FE41084478613868696920F430
:10585000406040EA010038603868A96920F40070AF
:1058600040EA0100386038684FF6F87120F4807023
:105870003860B869EA6920EA01004FF0807140EAB7
:10588000C200B861386808BF4FF4000140F480706E
:10589000002C386008BF4FF4800138680843386036
:1058A00057F82C0C40F0805047F82C0CFCF764F9AA
:1058B000044600BF57F82C0C800007D4FCF75CF9B5
:1058C000001B0328F6D3032001B0F0BD002001B077
:1058D000F0BD000000000000704700000000000064
:1058E000FCF74ABB00000000B0B59CB044F61804B9
:1058F00009A84C21C5F60204FAF75EFE0220002535
:10590000CDE90755CDE90555CDE90355CDE901555B
:10591000FCF702FC40F22C400095C5F6000001683F
:1059200021F0010101600068012100F001000090F8
:10593000206861F38F302060206800F440400090C0
:1059400000982068800409D4206880045CBF206827
:105950005FEA804002D420688004F2D501200990DB
:105960004FF480300A9002201490CDE912001021EB
:105970000024CDE91510CDE917000C20199009A8D5
:10598000CDE91A44FDF71CFD20B1EFF3108072B68B
:10599000FEE700BF3F20019003200221CDE9020471
:1059A000402006904FF48060CDE9070401A8CDE9BE
:1059B0000444FDF7BDFA28B1EFF3108072B600BFC2
:1059C000FEE700BF1CB0B0BD4EF6885042F2000C9E
:1059D000CEF20000C5F2002C016841F470010160B4
:1059E000DCF8000000F00F00062806D8DCF8000004
:1059F000072161F30300CCF8000044F200404EF6AA
:105A00007F52C5F60200CEF6F622016841F0010190
:105A100001600021016103681A400260DCF8002087
:105A2000120706D5DCF80020072363F30302CCF845
:105A3000002040F200228161C161C0F202220162B5
:105A400082620022C0F2FF12C26240F28022C0F2E3
:105A50000112026341638263C163026441640268AC
:105A600022F480220260016641F20000C5F6004087
:105A70000068B1EB507F05D148F208100121C5F252
:105A80000010016044F2000043F2D201C5F2002090
:105A9000016070470000000040F22020C2F2004088
:105AA000FEF7CABA0000000010B540F6FF32C4F29B
:105AB0000002904202680FDCB0F1804F1DD040F22E
:105AC0000043C4F20003984217D040F60003C4F22A
:105AD0000003984211D014E040F60043C4F20003E2
